:020000040800F2
:10000000100C00207D1C0008D9030008DB03000849
:10001000DF030008E3030008E70300080000000016
:10002000000000000000000000000000EB030008DA
:10003000ED03000800000000EF030008F1030008D2
:10004000971C0008971C0008971C00083B17000825
:10005000971C0008971C0008971C0008971C0008B4
:10006000971C0008971C0008971C0008971C0008A4
:10007000971C0008971C0008971C0008971C000894
:10008000971C0008971C0008971C0008971C000884
:10009000971C0008971C0008971C0008971C000874
:1000A000971C0008971C0008971C0008971C000864
:1000B000971C0008AD0A000800000000971C00080B
:1000C000971C00080000000000000000971C0008BA
:1000D00000000000F11B0008950B00080000000064
:1000E000971C0008971C0008971C000800F002F8F5
:1000F00000F04EF80AA090E8000C82448344AAF174
:100100000107DA4501D100F043F8AFF2090EBAE871
:100110000F0013F0010F18BFFB1A43F0010318473B
:100120004462000064620000103A24BF78C878C1BD
:10013000FAD8520724BF30C830C144BF04680C60ED
:10014000704700000023002400250026103A28BF35
:1001500078C1FBD8520728BF30C148BF0B60704739
:10016000642903F049876F2903F08087782903F019
:10017000A787002070471FB504F070F90400002025
:10018000002104F0C3F9401C60601FBD10B510BD14
:1001900004F03FF91146FFF7EEFF00F009F804F014
:1001A0006FF903B4FFF7F2FF03BC01F0C7FC0000D6
:1001B0008AB0002007900890099001F055FC4FF498
:1001C000A06001F07BFD4FF4E13001F0C5FC00F0D0
:1001D00001FA00F052FA4FF4165000F0F4FC00F06F
:1001E000DDFD01F04AFA00F088FF41F61F4163206F
:1001F00000F016FA002000F097FFCDE06748007885
:100200000028FAD1102366A2032101F056F8082332
:1002100065A20321212000F0EFFF082363A206213D
:10022000002001F04AF808235FA20621212000F0F7
:10023000E3FF08215F4800F032FDC82001F051FCC7
:10024000294607A800F04FFD9DF820009DF81F10DB
:1002500040EA012258A105A803F086FE05A803F094
:100260005BFF5649888105A803F056FF0A2190FBE1
:10027000F1F4082002210A232246CDE900100321CF
:10028000282000F0CEFF08234DA20321382000F0E3
:10029000B3FF05A803F040FF0A2190FBF1F201FB38
:1002A0001204082002210A232246CDE9001003216E
:1002B0003C2000F0B6FF082342A20321442000F0B6
:1002C000FCFF082340A203214C2000F095FF0821E9
:1002D0003E4800F0E4FCC82001F003FC294607A8D2
:1002E00000F001FD9DF820009DF81F1040EA01225A
:1002F00031A103A803F038FE03A803F00DFF2F4936
:10030000C88103A803F008FF0A2190FBF1F408203C
:1003100002210A232246CDE900100621282000F000
:1003200080FF082326A20621382000F065FF03A8DD
:1003300003F0F2FE0A2190FBF1F201FB1204082007
:1003400002210A232246CDE9001006213C2000F0BC
:1003500068FF08231EA20621442000F04DFF1D481F
:100360008088164908801B48807948801948C079E0
:10037000888018480078C880164840780881154859
:100380008078488105A803F0C7FE0C49888103A83E
:1003900003F0C2FE0949C88130E7000031000020A7
:1003A000E6B8A9E5BAA600003A000000E6B9BFE544
:1003B000BAA600000000002025640000880000208C
:1003C0002E000000E9958000430000000800002096
:1003D00025000000D8000020704700BFFEE700BFE6
:1003E000FEE700BFFEE700BFFEE7704770477047BB
:1003F000704700000CB50020019000906C48006828
:1004000040F480306A49086000BF6948006800F421
:10041000003000900198401C0190009818B9019894
:10042000B0F5A06FF1D16248006800F4003010B15F
:100430000120009001E0002000900098012843D1A5
:100440005C48006840F010005A490860084600689F
:1004500020F0030008600846006840F002000860D1
:10046000534840685249486008464068486008461A
:10047000406840F4806048600846406820F47C1082
:1004800048600846406840F4E81048600846006844
:1004900040F08070086000BF4548006800F00070C0
:1004A0000028F9D04248406820F0030040494860E5
:1004B0000846406840F00200486000BF3C48406881
:1004C00000F00C000828F9D10CBD10B5FFF792FF21
:1004D00010BD10B53648006840F00100344908608E
:1004E0000846406834490840314948600846006879
:1004F000324908402E4908600846006820F48020F0
:1005000008600846406820F4FE0048604FF41F0071
:100510008860FFF7DAFF4FF000602949086010BDDE
:1005200010B5002100200022214B5B6803F00C0174
:1005300021B1042906D0082928D107E0214B224CFB
:10054000236027E01F4B204C236023E0184B5B689F
:1005500003F47010164B5B6803F48032022303EB44
:10056000904022B9194B4343174C23600DE0104BC8
:100570005B6803F4003323B1144B4343124C2360F4
:1005800003E0104B4343104C236003E00D4B0E4C33
:10059000236000BF00BF064B5B68C3F303130C4C22
:1005A000E15C094B1B68CB40074C236010BD000089
:1005B00000100240002002400000FFF8FFFFF6FE9E
:1005C00008ED00E000127A001000002000093D0054
:1005D0001400002008B50121182001F0F9FE4FF4A5
:1005E0000050ADF8000010208DF8030002208DF8B7
:1005F00002006946084801F02FFC4FF20800ADF8F0
:10060000000010208DF8030003208DF802006946D9
:10061000024801F021FC08BD00100140000C01401F
:100620007FB505460C460121022001F0DEFEADF843
:100630000850ADF804400020ADF80A00ADF80600FF
:1006400001A9FC4802F04AFE01221146F94803F0D4
:10065000BCF91D208DF8000000208DF8010003205A
:100660008DF8020001208DF80300684601F02BFB95
:100670000121F04803F08EF97FBD08B50121082063
:1006800001F0A6FE4FF47C70ADF8000048208DF814
:1006900003006946E84801F0DFFB0120E7490870E4
:1006A00008BD10B50446012C06D10823E4A206219A
:1006B000542000F002FE00BF00BF10BD042119E06D
:1006C000E14A02EB8100D0F8000148B9081F01227D
:1006D00002FA00F0DD4A12781043DC4A107007E09D
:1006E000081F01228240D94800789043D74A1070F1
:1006F000481CC1B20A29E3DBD448007870471CB516
:10070000002000F011FD0823D1A20021102000F0EC
:1007100073FD0823CEA20021282000F06DFD0823E0
:10072000CCA200215C2000F067FD08200221CDE969
:100730000010C948C2880A230021084600F071FD54
:1007400008200221CDE90010C34802890A230021B4
:10075000182000F066FD08200221CDE90010BE48F7
:1007600042890A230021302000F05BFD082002218D
:10077000CDE90010B84842880A2300214C2000F03F
:1007800050FD08200221CDE90010B34882880A23D9
:100790000021642000F045FD1023B0A203210020B9
:1007A00000F08BFD0823AAA20321212000F024FDE4
:1007B0000823ACA20621002000F07FFD0823A4A29C
:1007C0000621212000F018FDA34880890A2190FB12
:1007D000F1F4082002210A232246CDE9001003216A
:1007E000282000F01EFD0823A0A20321382000F0DD
:1007F00003FD994880890A2190FBF1F201FB120464
:10080000082002210A232246CDE9001003213C20C2
:1008100000F007FD082396A20321442000F04DFDBF
:10082000082394A203214C2000F0E6FC8A48C089EA
:100830000A2190FBF1F4082002210A232246CDE987
:1008400000100621282000F0ECFC082387A20621D6
:10085000382000F0D1FC8048C0890A2190FBF1F2D9
:1008600001FB1204082002210A232246CDE90010D0
:1008700006213C2000F0D5FC08237FA2062144205D
:1008800000F0BAFC1CBD1CB57C480078082872D06A
:1008900006DC012809D002282BD0042828D129E021
:1008A000102867D02028F9D187E075480078F8B97A
:1008B00074490978744A102303FB01201A466649DB
:1008C00001F057F86F480078401C6E4908700846E0
:1008D0000078642801DD0020087008236BA206213F
:1008E000542000F0EAFC01206A4908706A49087047
:1008F000D7E0D6E062480078012839D16148007815
:10090000401E66490978884204DD64480078401C2E
:1009100062490870614909785B4A102303FB012092
:100920001A464D4901F014F8002000F0FDFB0820A4
:100930000221CDE900104848C2880A230021084658
:1009400000F06FFC08200221CDE900104248028926
:100950000A230021182000F064FC08200221CDE9C0
:1009600000103D4842890A230021302000F059FC44
:1009700097E000E020E042480078012818D00120EC
:100980003F4908703F480078002804DD3D48007862
:10099000401E42490870414909783B4A102303FB35
:1009A00001201A462C4900F0D3FFFFF7A8FE02E011
:1009B00000203349087074E073E031480078012862
:1009C0006ED136480078002804DD34480078401E97
:1009D00032490870314909782B4A102303FB012062
:1009E0001A461D4900F0B4FF002000F09DFB0820CE
:1009F0000221CDE900101848C2880A2300210846C8
:100A000000F00FFC08200221CDE9001012480289F5
:100A10000A230021182000F004FC08200221CDE95F
:100A200000100D4842890A230021302000F0F9FB14
:100A300037E035E000040040000C01402B000020AE
:100A4000E7A9BAE7A9BA00000080214232000020DD
:100A50003A0000002D00000088000020E6B8A9E55B
:100A6000BAA60000E6B9BFE5BAA600002E00000055
:100A7000E9958000430000002500000029000020C7
:100A8000310000202F00002000700008E4BF9DE529
:100A9000AD9800002C0000202E0000203000002027
:100AA00000BF00BF00202F4908701CBD10B50121F8
:100AB0002D4803F049FA2D48007800B910BDFFF722
:100AC000FDFD2B490870084600782A4909788842BC
:100AD00007D000202849087025480078254908706B
:100AE000ECE725480078401C234908700846007848
:100AF00002281DDB012008701E4800781F4908707D
:100B0000084600781E49097888431E490978084339
:100B10001C4908701A480078184909788843114917
:100B2000097808430F490870144800781449087080
:100B3000FFF7A9FE14480078012811D11348007866
:100B4000401C1249087008460078C82808DD0020BB
:100B50000D4908700D4908700D480078FFF7A1FD98
:100B600000BFABE729000020000400402B0000205C
:100B7000240000202500002026000020270000205F
:100B80002A000020280000202C0000202D0000203A
:100B90002E00002010B540F22551644801F03CFEC3
:100BA00080B1624801F0B8FDC4B2614800784028C5
:100BB00008DA60485E49097844545D480078401C72
:100BC0005B49087010BD10B586B004460121242091
:100BD00001F0FEFB0121480401F007FC8020ADF884
:100BE000140010208DF8170003208DF8160005A9B9
:100BF000514801F031F90420ADF8140018208DF8A7
:100C0000170005A94D4801F027F90820ADF8140098
:100C100004208DF8170005A9484801F01DF90121AD
:100C2000480401F0FCFB00214FF4003001F0F7FB19
:100C300001940020ADF80800ADF80A00ADF80C00F2
:100C4000ADF810000C20ADF80E0001A9374801F0F6
:100C500066FC26208DF8000003208DF801008DF839
:100C6000020001208DF80300684601F02CF80122F3
:100C700040F225512D4801F0EAFC01212B4801F0FA
:100C8000DAFC00202E49086023202E490870142029
:100C90004870462088703220C87006B010BD70B50C
:100CA00005460E4601202649086000240CE000BFDE
:100CB00040211E4801F09AFD0028F9D0295D1B480B
:100CC00001F026FD601CC4B2B442F0DB00BF40213D
:100CD000164801F08BFD0028F9D000201449087057
:100CE0001749086070BD2DE9F04107460D461048D0
:100CF00006780024002028700A2000F0F2FE0C483C
:100D0000007886420FD176B100BF04E00948005D4B
:100D10003855601CC4B2B442F8DB0548007828702E
:100D2000002003490870BDE8F08100000044004045
:100D30003700002098000020001401400008014006
:100D40009C8122423300002008B50121082001F0D7
:100D50003FFB4FF48060ADF8000048208DF80300A1
:100D600069469A4801F078F808BD08B501210820C5
:100D700001F02EFB4FF48060ADF8000014208DF8D8
:100D8000030003208DF802006946904801F064F8E2
:100D90004FF480618D4801F00CF908BD08B50121C0
:100DA000082001F015FB4FF48060ADF8000014201E
:100DB0008DF8030003208DF802006946834801F096
:100DC0004BF84FF48061814801F0F3F801210820CD
:100DD00001F0FEFA4FF40060ADF8000069467B4870
:100DE00001F03AF84FF40061784801F0E2F808BDEC
:100DF00010B5FFF7BAFF4FF40061744801F0D9F85D
:100E00004FF48061714801F0D4F8012000F045FEF4
:100E10004FF480616D4801F0CEF8012000F03DFEF6
:100E20004FF40061694801F0C6F810BD10B5FFF736
:100E30009CFF4FF48061654801F0BDF84FF40061FC
:100E4000624801F0B6F8012000F027FE4FF48061FF
:100E50005E4801F0AEF8012000F01FFE4FF4006183
:100E60005A4801F0A8F810BD70B50446FFF77DFFA1
:100E7000002521E004F0800028B14FF48061534840
:100E800001F097F804E04FF48061504801F093F8C6
:100E90006006040E4FF400614C4801F08AF801200E
:100EA00000F0FBFD4FF40061484801F084F8012098
:100EB00000F0F3FD681CC5B2082DDBDB70BD70B51A
:100EC0000025FFF741FF012000F0E7FD072420E0A7
:100ED0004FF400613D4801F06CF8012000F0DDFDA9
:100EE0004FF48061394801F04AF820B10120A04058
:100EF0002843C5B203E00020A0402843C5B24FF408
:100F00000061324801F057F8012000F0C6FD601E74
:100F100044B2002CDCDA284670BD10B5FFF725FF7F
:100F20004FF48061294801F046F84FF400612748EA
:100F300001F03FF8012000F0B0FD4FF4806123483C
:100F400001F037F84FF40061204801F034F810BD8B
:100F500010B5FFF70AFF4FF480611C4801F029F833
:100F60004FF40061194801F024F8012000F095FDCC
:100F70004FF40061154801F01EF810BD10B50024B3
:100F8000FFF7E2FE4FF40061104801F012F80EE0A6
:100F9000601CC0B20446322806DD4FF400610B48E5
:100FA00001F009F8002010BD012000F076FD4FF49B
:100FB0008061064800F0E3FF0028E9D14FF40061AA
:100FC000024800F0F8FF0120EDE70000000C0140AE
:100FD00010B50446FFF70CFF7820FFF745FFFFF739
:100FE000CDFF0020FFF740FFFFF7C8FF2046FFF7C7
:100FF0003BFFFFF7C3FFFFF719FF10BD70B50446B5
:101000000D4605F1B001C8B2FFF7E2FF102141EA39
:101010001410FFF7DDFF04F00F00FFF7D9FF70BDDC
:101020002DE9F04106460D46284603F082F887B2C6
:10103000002400BF1CE0307804EB4401695C4840A8
:1010400068B9707804EB4401491C695C484030B9C8
:10105000B17804EB4400801C285C414009B10120B8
:1010600000E0002010B92046BDE8F081601CC4B249
:10107000032097FBF0F0A042DDDC0020F4E710B580
:101080000446FFF7B5FE7820FFF7EEFEFFF776FF88
:101090004020FFF7E9FEFFF771FF2046FFF7E4FE6F
:1010A000FFF76CFFFFF7C2FE10BD10B50446012C20
:1010B00003D1A720FFF78CFF02E0A620FFF788FFEF
:1010C00010BD10B5044634B9A120FFF781FFC82038
:1010D000FFF77EFF05E0A020FFF77AFFC020FFF7B3
:1010E00077FF10BD10B504461CB9AF20FFF770FFA5
:1010F00002E0AE20FFF76CFF10BD10B58120FFF7B6
:1011000067FFFF20FFF764FFA120FFF761FFC82002
:10111000FFF75EFF8D20FFF75BFF1420FFF758FFFE
:10112000AF20FFF755FF10BD70B50646002415E04F
:1011300004F1B001C8B2FFF74BFF0020FFF748FFF2
:101140001020FFF745FF002504E03046FFF797FF2A
:10115000681CC5B2802DF8DB601CC4B2082CE7DB2C
:1011600070BD2DE9F04780460D4691461E46A9F117
:101170002000C7B2B8F17F0F01DC072D02DD4FF070
:1011800000080025082E21D129464046FFF736FFEA
:10119000002407E08F4901EB0711085DFFF76FFF9F
:1011A000601CC4B2082CF5DB681CC1B24046FFF7D6
:1011B00025FF082407E0874901EB0711085DFFF7C9
:1011C0005EFF601CC4B2102CF5DB13E0062E11D1BB
:1011D00029464046FFF712FF002409E007EB4701CC
:1011E0007D4A02EB4101085DFFF749FF601CC4B274
:1011F000062CF3DBBDE8F0872DE9F04105460F46EC
:1012000014461E4608E014F8012B3346394628469A
:10121000FFF7A7FFA819C5B220780028F3D1BDE8D1
:10122000F0812DE9F04788B00646884691461D4674
:10123000DDE910A700241C2101A802F099FF0A2D66
:1012400005D14A4665A101A802F08EFE14E0102DDA
:1012500005D14A4662A101A802F086FE0CE0082DE5
:1012600005D14A465FA101A802F07EFE04E04A468D
:101270005AA101A802F078FE01A802F05AFFC4B2F8
:1012800004E0202001A90855601CC4B25445F8DBD5
:1012900000240BE02046611CCCB201A90A5C3B464D
:1012A00041463046FFF75DFFF019C6B201A8005D68
:1012B0000028EFD108B0BDE8F0872DE9F0470646D9
:1012C0000F4690469A467F2E01DC072F01DD00264F
:1012D0000027002530E005EB450101EB08004249FD
:1012E000FFF79EFE8146102101FB0561C8B2394619
:1012F000FFF784FE002407E03C4901EB4911085D3B
:10130000FFF7BDFE601CC4B2102CF5DB7A1CD1B215
:10131000102202FB0562D0B2FFF770FE102407E036
:10132000324901EB4911085DFFF7A9FE601CC4B208
:10133000202CF5DB681CC5B2404602F0FAFE032102
:10134000B0FBF1F0A842C6D8BDE8F0872DE9F04720
:1013500006460F4690469946DDF820A0002534E069
:1013600039467A1CD7B23046FFF748FE06EBC51067
:1013700084B224E0BAF1050F1DD2DFE80AF0030DB4
:10138000081217001A49085DFFF779FE14E01949A1
:10139000085DFFF774FE0FE01749085DFFF76FFE69
:1013A0000AE01649085DFFF76AFE05E01449085D8A
:1013B000FFF765FE00E000BF00BF601C84B208EBD1
:1013C000C510A042D6DC681C85B24D45C8DBBDE81F
:1013D000F0870000724700083845000825640000C7
:1013E00025580000256F000038000020624D0008DD
:1013F000224F00082257000822530008225B0008F1
:10140000225F000808B503208DF8000000208DF849
:1014100001008DF8020001208DF80300684600F0FD
:1014200052FC08BDF0B503460C461546642093FBFC
:10143000F0F0C6B2642093FBF0F700FB1730C1B2A6
:10144000132E02DD01F16400C1B20846CF1701EB93
:10145000977701EBA707BAB2072092FBF0F700FBE2
:10146000172082B25719601EDFF86CC41CF8000008
:10147000384482B2CF1701EB9777BF10A1EB8707F3
:101480001FB9032C01DA501E82B2072092FBF0F73D
:1014900000FB1720C0B2F0BD0146CA1701EB9272E3
:1014A0009210A1EB820292B9642091FBF0F200FB52
:1014B000121050B94FF4C87091FBF0F200FB1210FB
:1014C00008B9012070470020FCE70120FAE700205E
:1014D000F8E770B500260024002501F041FD06461E
:1014E000FE48B6FBF0F4FE480088A0423CD0FC4920
:1014F0000C8040F2B27510E02846FFF7CDFF40B1F6
:10150000B4F5B77F02D3A4F5B77404E0681C85B2C4
:1015100006E0A4F26D14681C85B2B4F5B67FEBD872
:1015200000BFF0488580002516E0EE498888FFF767
:10153000B3FF30B1012D04D11D2C01D31D3C09E0B6
:101540000CE0E948405DA04203D8E748405D241A1A
:1015500000E003E0681C85B21C2CE6D200BF681CCA
:10156000E0498871601CC871DC48B6FBF0F100FBF3
:1015700011644FF46160B4FBF0F0DA4908704FF485
:101580006160B4FBF0F100FB11403C21B0FBF1F0D5
:10159000D44948704FF46160B4FBF0F100FB114096
:1015A0003C21B0FBF1F201FB1200CE4988700B46E2
:1015B000DA7999799888FFF735FFCA4908720020CF
:1015C00070BD2DE9F05F06460F4690469946DDE96D
:1015D0000AAB002440F2B270864203DB40F63300CF
:1015E000864202DD0120BDE8F09F40F2B2750AE0BC
:1015F0002846FFF751FF10B1BC48044401E0BC4845
:101600000444681C85B2B542F2DB781EC7B20025DF
:1016100010E0B548405D40F2A321484304EBC014FC
:101620003046FFF739FF18B1012D01D1AB48044412
:10163000681C85B2BD42ECDBA8F1010040F2A32199
:10164000484304EBC014C9EB4910C0EB092004EB7C
:101650000014CAEB0A1004EB80045C4401214FF033
:10166000C05000F0C2FE012001F009FD204601F04B
:1016700080FC01F0B1FC0020B5E71CB5002401217D
:101680004FF0C05000F0B1FE012001F0F8FC042042
:1016900001F019FC45F25001884240D001F0DEFB18
:1016A000012000F002FE04E0601CC4B20A2000F039
:1016B00018FA412000F061FD08B9FA2CF4DBFA2C8D
:1016C00001DB01201CBD4FF4807000F00AFE0120F8
:1016D00000F00DFE01F080FC01F087FC01210846BE
:1016E00001F01EFC01F078FC01F027FC47F6FF70CA
:1016F00001F04CFC01F070FC37202A2111230E224E
:10170000CDE90010012140F2DF70FFF75AFF01F030
:101710001DFC45F25001042001F0C9FB07E001F077
:1017200064FC0121084601F0FBFB01F055FCFFF7CA
:1017300069FEFFF7CEFE0020C4E70EB5012001F0E0
:1017400079FC00284ED0FFF7C4FE6A4800780028D4
:1017500048D1082368A200211020FFF74DFD08237F
:1017600065A200212820FFF747FD082363A200217E
:101770005C20FFF741FD08200221CDE90010594807
:1017800002780A2300210846FFF74BFD08200221BA
:10179000CDE90010534842780A2300211820FFF7B2
:1017A00040FD08200221CDE900104E4882780A232E
:1017B00000213020FFF735FD08200221CDE900107F
:1017C000484882790A2300214C20FFF72AFD08208F
:1017D0000221CDE900104348C2790A230021642088
:1017E000FFF71FFD022001F025FCA0B1022001F04F
:1017F00031FCFFF76EFE3B4880783A494978394A18
:101800001278CDE9002102903648C3798279818827
:101810003BA002F09DFB052001F01CFC01F0DCFB6D
:101820000EBD2DE9F05F06460F4690469946DDE96C
:101830000AAB002440F2B270864203DB40F633006C
:10184000864202DD0120BDE8F09F40F2B2750AE059
:101850002846FFF721FE10B12448044401E0244843
:101860000444681C85B2B542F2DB781EC7B200257D
:1018700010E01D48405D40F2A321484304EBC01432
:101880003046FFF709FE18B1012D01D11348044479
:10189000681C85B2BD42ECDBA8F1010040F2A32137
:1018A000484304EBC014C9EB4910C0EB092004EB1A
:1018B0000014CAEB0A1004EB80045C4401214FF0D1
:1018C000C05000F092FD012001F0D9FB204601F04C
:1018D0006BFB01F081FB23E02263000880510100D3
:1018E00066000020D80000202E6300080085E20179
:1018F0008033E101310000203A0000002D0000009B
:10190000416C61726D2054696D653A25642D2564C2
:101910002D25642025643A25643A25640A000000D8
:10192000002090E70146088870472DE9F041054600
:101930000E461746002407E036F81410284601F03A
:1019400016F9AD1C601C84B2BC42F5DBBDE8F08129
:1019500030B503460C461546002207E01846FFF74F
:10196000E1FF24F812009B1C501C82B2AA42F5DB56
:1019700030BD2DE9F05F80468A461746B8F1006F0A
:1019800002D33748804501D3BDE8F09F00F0A7FFA0
:10199000A8F1006B4FEA9B25CBF34809C9F5007409
:1019A000A74200DC3C464DE04FF0006101EB852092
:1019B0008A142C49FFF7CCFF00260BE009EB060048
:1019C000284931F810004FF6FF71884200D003E03B
:1019D000701C86B2A642F1DB00BFA6421BDA4FF0B4
:1019E000006101EB852000F0BFFF002608E03AF817
:1019F000160006EB09011B4A22F81100701C86B282
:101A0000A642F4DB4FF0006101EB85208A141549F2
:101A1000FFF78BFF04E0224651464046FFF785FF63
:101A2000A74200D10FE06D1C4FF000090AEB440AF9
:101A3000A044381B87B2B7F5007F02DD4FF4007475
:101A400000E03C46B0E700BF00F055FF00BF9BE759
:101A500013B50446012201A92046FFF78AFF1CBDE9
:101A600000800008E200002010B56FF0040000F0D4
:101A700074F92E4800682E49B0FBF1F02D4908702A
:101A80000846007800EB4001C1EBC0104FF6FF7133
:101A900001EAC0002849088010BD0146254A127895
:101AA0004A434FF0E0235A6100229A611A461269B4
:101AB00042F001021A6100BF4FF0E022106900F00D
:101AC00001021AB100F48032002AF5D04FF0E02272
:101AD000126922F001024FF0E0231A6100229A619C
:101AE00070470146144A12884A434FF0E0235A6176
:101AF00000229A611A46126942F001021A6100BF7F
:101B00004FF0E022106900F001021AB100F48032B7
:101B1000002AF5D04FF0E022126922F001024FF0C6
:101B2000E0231A6100229A61704700001000002033
:101B300000127A00680000206A00002000BF704791
:101B400000BF4A4A128802F04002002AF9D0C2B20D
:101B5000464B1B1D1A80704710B586B00446012104
:101B600044F2040000F034FC4FF40070ADF81400AF
:101B700003208DF8160018208DF8170005A93C48A1
:101B800000F06AF94FF48060ADF8140004208DF87D
:101B9000170005A9364800F05FF925208DF80000F0
:101BA00003208DF801008DF8020001208DF803005C
:101BB000684600F088F801940020ADF80800ADF800
:101BC0000A00ADF80C00ADF810000C20ADF80E00C6
:101BD00001A9264800F0A3FC012240F22551234828
:101BE00000F035FD0121214800F025FD06B010BDB3
:101BF00010B540F225511D4800F00EFE10B31B48F1
:101C000000F08AFDC4B21B48008800F40040C8B947
:101C10001848008800F4804060B10A2C03D00020EE
:101C20001449088020E01348008840F4004011491E
:101C3000088019E00D2C06D10E48008840F4804041
:101C40000C49088010E00B480088C0F30D000A49D9
:101C50000C5408480088401C064908800846008843
:101C6000C72801DD0020088010BD000000380140B9
:101C70000008014070000020E2040020094880476D
:101C800009480047FEE7FEE7FEE7FEE7FEE7FEE75E
:101C9000FEE7FEE7FEE7FEE704480549054A064B76
:101CA00070470000D3040008ED0000081006002073
:101CB000100C0020100800201008002031490143BA
:101CC000314A1160704770B5002100230F22C4789B
:101CD00004B32D4C246804F4E064C4F5E064210AE4
:101CE000C1F10403CA40447804FA03F18478144033
:101CF00021430901254C0678A155047804F01F05FD
:101D00000124AC4005786D11AD0005F1E025C5F862
:101D1000004109E0047804F01F050124AC401C4D8B
:101D20000678761145F8264070BD1A4A0A400243EB
:101D3000154B1B1F1A60704739B1134A121D1268E8
:101D40000243114B1B1D1A6006E00F4A121D126858
:101D500082430D4B1B1D1A607047042808D14FF0B9
:101D6000E021096941F004014FF0E022116107E030
:101D70004FF0E021096921F004014FF0E0221161E8
:101D8000704700000000FA050CED00E000E400E000
:101D900080E100E080FFFF1F10B50446CC4884427C
:101DA00008D10121042000F02DFB0021042000F0C7
:101DB00029FB46E0C748844208D10121082000F0F1
:101DC00021FB0021082000F01DFB3AE0C2488442BC
:101DD00008D10121102000F015FB0021102000F097
:101DE00011FB2EE0BD48844208D10121202000F0E3
:101DF00009FB0021202000F005FB22E0B8488442C6
:101E000008D10121402000F0FDFA0021402000F01F
:101E1000F9FA16E0B348844208D10121802000F08D
:101E2000F1FA0021802000F0EDFA0AE0AE48844289
:101E300007D10121801500F0E5FA0021A01500F07E
:101E4000E1FA10BD10B50121084600F0DBFA0021CF
:101E5000012000F0D7FA10BD2DE9F041024600251F
:101E60000026002000230024002791F803C00CF076
:101E70000F0591F803C00CF0100CBCF1000F03D05B
:101E800091F802C04CEA050591F800C0BCF1000FC2
:101E900031D0146800202BE04FF0010C0CFA00F355
:101EA000B1F800C00CEA03069E4220D183004FF037
:101EB0000F0C0CFA03F7BC4305FA03FC4CEA0404CC
:101EC00091F803C0BCF1280F06D14FF0010C0CFAB9
:101ED00000FCC2F814C00AE091F803C0BCF1480F3E
:101EE00005D14FF0010C0CFA00FCC2F810C0401CE8
:101EF0000828D1D31460B1F800C0BCF1FF0F34DD65
:101F0000546800202EE000F1080C4FF0010808FA98
:101F10000CF3B1F800C00CEA03069E4221D1830005
:101F20004FF00F0C0CFA03F7BC4305FA03FC4CEA24
:101F3000040491F803C0BCF1280F05D100F1080C8E
:101F400008FA0CF8C2F8148091F803C0BCF1480FED
:101F500007D100F1080C4FF0010808FA0CF8C2F89C
:101F60001080401C0828CED35460BDE8F0814FF6A5
:101F7000FF710180022181700421C1707047024607
:101F8000002093680B400BB1012000E00020704757
:101F90000146886880B2704702460020D3680B4033
:101FA0000BB1012000E0002070470146C86880B2F4
:101FB000704701617047416170470AB1016100E0FB
:101FC00041617047C16070474FF480320A438261BB
:101FD0008161826182698269704702460020434BB9
:101FE00018684FF68073184040EA021008433F4BD0
:101FF000186070473E49C8617047F0B50A46002333
:1020000000240021002500F00046B6F1004F02D167
:10201000364EF16901E0354E7168C0F3034583B275
:1020200000F44016B6F5401F08D121F070612F4E24
:10203000766826F070662D4F7E6012E000F4801600
:10204000B6F5801F06D1032606FA05F4A14341F038
:10205000706106E0460D360103FA06F6B14341F021
:10206000706122B1460D360103FA06F6314300F0E5
:102070000046B6F1004F02D11C4EF16101E01B4E4B
:102080007160F0BD30B500228B071C0F0F2303FADF
:1020900004F2164B08338C1053F824309343134C3E
:1020A00008348D1044F8253023468C1053F8243022
:1020B0008C07240F00FA04F423430C4C08348D10D1
:1020C00044F8253030BD0A49DC3108607047000013
:1020D00000080140000C01400010014000140140C4
:1020E00000180140001C0140002001400000014098
:1020F00000002042DF48006840F00100DD49086030
:1021000008464068DC490840DA49486008460068EB
:10211000DA490840D74908600846006820F4802062
:1021200008600846406820F4FE0048604FF41F0035
:1021300088607047CF49096821F48031CD4A116029
:102140001146096821F480211160B0F5803F03D069
:10215000B0F5802F0ED106E0C649096841F4803100
:10216000C44A116007E0C349096841F4A021C14A8B
:10217000116000E000BF00BF704710B501460022AB
:10218000002300204A11012A02D1BA4C236806E03C
:10219000022A02D1B74C236A01E0B64C636A01F00F
:1021A0001F02012494401C400CB1012000E00020DB
:1021B00010BD38B5002000900024002500BF31205C
:1021C000FFF7DBFF05460098401C00900098B0F533
:1021D000A06F01D0002DF2D03120FFF7CEFF08B163
:1021E000012400E00024204638BD01460020A14A19
:1021F000106820F0F80040EAC10010607047A04964
:1022000008607047024600209A4B586820F47C1002
:1022100042EA01031843974B586070479849086693
:10222000704701460020934A506820F0030008439D
:10223000506070478F48406800F00C0070470146BE
:1022400000208C4A506820F0F0000843506070472E
:1022500001460020874A506820F4E060084350603F
:10226000704701460020834A506820F4605040EADD
:10227000C1005060704729B17E4A527A02437D4BBB
:102280005A7204E07B4A527A82437A4B5A72704700
:102290007B49D8310860704701460020754A506874
:1022A00020F440400843506070470021714A2032BA
:1022B0001170704A82F82010012802D004280AD137
:1022C00004E001216B4A2032117005E00521694AC2
:1022D0002032117000E000BF00BF704769490860FC
:1022E00070476449096A0143624A1162704765494F
:1022F00044390860704730B50021002200240023D3
:102300005C4D6D6805F00C0121B1042905D0082948
:1023100023D105E05C4D056022E05B4D05601FE0C8
:10232000544D6D6805F47012524D6D6805F480349B
:10233000022505EB92421CB9544D554305600BE054
:102340004C4D6D6805F400351DB1504D5543056089
:1023500002E04D4D5543056002E04B4D056000BF66
:1023600000BF444D6D6805F0F0010909484D6B5CF4
:102370000568DD4045603F4D6D6805F4E061090A80
:10238000434D6B5C4568DD4085603A4D6D6805F4F2
:102390006051C90A3E4D6B5C4568DD40C560354DF6
:1023A0006D6805F44041890B3A4D6B5CC568B5FB1F
:1023B000F3F5056130BD29B12E4A526902432D4B18
:1023C0005A6104E02B4A526982432A4B5A61704792
:1023D00029B1284A92690243264B9A6104E0254AB2
:1023E00092698243234B9A61704729B1214AD2698D
:1023F0000243204BDA6104E01E4AD26982431D4B3E
:10240000DA61704729B11B4AD2680243194BDA607E
:1024100004E0184AD2688243164BDA60704729B14B
:10242000144A12690243134B1A6104E0114A1269FB
:102430008243104B1A617047124940390860704757
:102440000F49C86470470B49C87170470948406A12
:1024500040F0807007494862704701460020054AF5
:1024600092680A400AB1012000E00020704701494B
:1024700088727047001002400000FFF8FFFFF6FE70
:10248000000042428004424200127A0000093D00EE
:10249000720000208200002010B50446FB488442F0
:1024A00009D101218803FFF7ADFF00214FF48040DF
:1024B000FFF7A8FF32E0F648844209D10121480421
:1024C000FFF7ADFF00214FF40030FFF7A8FF25E034
:1024D000F048844209D101218804FFF7A0FF0021C0
:1024E0004FF48020FFF79BFF18E0EB48844209D1AE
:1024F0000121C804FFF793FF00214FF40020FFF7EC
:102500008EFF0BE0E548844208D101210805FFF762
:1025100086FF00214FF48010FFF781FF10BD2DE9E9
:10252000F04786B005460E460024A24600BFA146ED
:102530000027B08900B100BF2F462C8A4CF6FF70EF
:102540000440F08804432C82AC894EF6F31004401A
:10255000B08831890843718908430443AC81AC8A4F
:102560004FF6FF400440B0890443AC8201A8FFF756
:10257000C2FEC648874202D1DDF810A001E0DDF8B6
:102580000CA0A88900F4004040B10AEBCA0000EB9F
:102590000A1031684900B0FBF1F807E00AEBCA0005
:1025A00000EB0A1031688900B0FBF1F86420B8FB39
:1025B000F0F004012009642101FB1089A88900F4CE
:1025C000004040B1322000EBC900B0FBF1F000F058
:1025D0000700044308E0322000EB09106421B0FB3F
:1025E000F1F000F00F0004432C8106B0BDE8F08745
:1025F0004FF41651016000218180C18001810C21BE
:10260000418100218181704710B502460020108A67
:102610004FF2FF0318400B884C8823438C882343D8
:10262000CC8823431843108210BD002101804180D3
:102630008180C180704721B1828942F40052828139
:1026400004E082894DF6FF731A4082817047F0B52D
:102650000346002400260025002040F66A17B942F0
:1026600000D100BF1846C1F3421401F01F06012734
:1026700007FA06F5012C01D10C3004E0022C01D13F
:10268000103000E014301AB107682F43076002E0F1
:102690000768AF430760F0BD1AB1838A0B4383829A
:1026A00002E0838A8B4383827047028A4FF6F0737D
:1026B0001A400282028A0A430282704782894FF2DC
:1026C000FF731A40828182890A438281704721B157
:1026D000828942F00202828104E082894FF6FD7312
:1026E0001A4082817047028A4FF6DF731A400282D5
:1026F000028A0A430282704721B1028A42F4804270
:10270000028204E0028A4BF6FF731A40028270478D
:10271000C1F308028280704701468888C0F3080030
:102720007047818941F0010181817047028BD2B2EB
:102730000283028B42EA012202837047028B02F479
:102740007F420283028B0A430283704721B1828A4F
:1027500042F02002828204E0828A4FF6DF731A4040
:102760008282704721B1828A42F01002828204E0A4
:10277000828A4FF6EF731A408282704721B1828AB3
:1027800042F00802828204E0828A4FF6F7731A4010
:102790008282704721B1828942F40042828103E043
:1027A0008289C2F30E028281704721B1828A42F48B
:1027B0000062828204E0828A4FF2FF731A408282B2
:1027C0007047828A4FF6FB731A408282828A0A43DC
:1027D0008282704721B1828A42F00202828204E042
:1027E000828A4FF6FD731A408282704702460020AB
:1027F000B1F5007F00D100BF13880B400BB1012061
:1028000000E00020704701F40072B2F5007F00D1B3
:1028100000BFCA430280704770B5024600240023FF
:102820000025002040F66A16B14200D100BFC1F376
:10283000421501F01F03012606FA03F3012D02D110
:102840009689334006E0022D02D1168A334001E01A
:10285000968A33400C12012606FA04F41688344096
:1028600013B10CB1012000E0002070BD10B50022B2
:10287000002340F66A14A14200D100BF0A120124CD
:102880009440A3B2DC43048010BD00000038014036
:102890000044004000480040004C00400050004010
:1028A00001460020FE4A106800F03800084310601E
:1028B0007047FB49096821F00801F94A1160114687
:1028C0000968014311607047F549096821F010015A
:1028D000F34A116011460968014311607047F148DD
:1028E000EF494860F04848607047EE48EC4948605E
:1028F000ED4848607047EA48006940F08000E849C8
:1029000008617047E648006940F08000E4490861CA
:1029100070470420E249C96801F0010109B10120B2
:102920000EE0DF49C96801F0040109B1022007E0A7
:10293000DB49C96801F0100109B1032000E004205F
:10294000704700B502460423FFF7E3FF034603E0A8
:10295000FFF7DFFF0346521E012B01D1002AF7D1FA
:1029600002B90523184600BD30B5044604254FF4CE
:102970003020FFF7E6FF0546042D17D1C84800694F
:1029800040F00200C649086108464461006940F011
:10299000400008614FF43020FFF7D3FF0546C048E0
:1029A000006941F6FD710840BD490861284630BD07
:1029B00010B504244FF43020FFF7C3FF0446042C65
:1029C00016D1B748006940F00400B54908610846CF
:1029D000006940F0400008614FF43020FFF7B1FF7C
:1029E0000446AF48006941F6FB710840AC490861F4
:1029F000204610BD00B502460423FFF78AFF0346B8
:102A000003E0FFF786FF0346521E012B01D1002A87
:102A1000F7D102B90523184600BD10B504244FF4C0
:102A20003020FFF7E7FF0446042C16D19C480069CC
:102A300040F004009A4908610846006940F04000EF
:102A400008614FF43020FFF7D5FF04469448006931
:102A500041F6FB71084092490861204610BD0020F4
:102A60008F49C96901F0020109B1012000E000208D
:102A7000704730B5A5250424FFF7F1FF00B100250C
:102A80004FF43020FFF75DFF0446042C3AD185480F
:102A900083498860844888600846006940F02000C7
:102AA00008610846006940F0400008614FF430209A
:102AB000FFF747FF0446042C1BD17948006941F613
:102AC000DF710840764908610846006940F010004F
:102AD000086176480580E002FFF733FF0446052CC5
:102AE00010D06F48006941F6EF7108406C490861E9
:102AF00008E0052C06D06A48006941F6EF710840ED
:102B000067490861204630BD78B506460C46042565
:102B100000200090E802FFF714FF0546042D24D1A1
:102B20005F48006940F001005D4908613480E802B7
:102B3000FFF707FF0546042D10D1B01C0090200CB4
:102B400000990880E802FFF7FCFE0546544800693A
:102B500041F6FE7108405249086106E0504800699C
:102B600041F6FE7108404E490861284678BD70B5AF
:102B700004460D460426F002FFF7E3FE0646042E47
:102B800011D14748006940F001004549086125809E
:102B9000F002FFF7D6FE06464148006941F6FE7195
:102BA00008403F490861304670BD70B505460E4685
:102BB0000424E002FFF7C5FE0446042C17D139486F
:102BC00037498860384888600846006940F010003E
:102BD00008612E80E002FFF7B4FE0446052C06D003
:102BE0002F48006941F6EF7108402D4908612046E1
:102BF00070BD2DE9F04304464FF6FF763746B046E8
:102C0000B1460425E443E6B2C4F30727C4F30748FA
:102C10004FEA1469E802FFF794FE0546042D49D1F6
:102C200020481F498860204888600846006940F0B5
:102C300010000861FF2E06D01C4808300680E8020C
:102C4000FFF77FFE0546042D08D1FF2F06D0174859
:102C50000A300780E802FFF774FE0546042D0AD10A
:102C6000B8F1FF0F07D011480C30A0F80080E8023F
:102C7000FFF767FE0546042D0AD1B9F1FF0F07D013
:102C80000A480E30A0F80090E802FFF75AFE054609
:102C9000052D0FD00248006941F6EF71084007E0AA
:102CA0000020024023016745AB89EFCD00F8FF1FEC
:102CB000664908612846BDE8F08330B5054604241E
:102CC0004FF43020FFF73DFE0446042C41D160480C
:102CD0005E4988605F4888600846006940F02000CF
:102CE00008610846006940F0400008614FF4302058
:102CF000FFF727FE0446042C22D15448006941F610
:102D0000DF710840514908610846006940F0100031
:102D100008611DB100205049088002E0A5204E49FD
:102D200008804FF43020FFF70CFE0446052C10D02D
:102D30004648006941F6EF7108404449086108E0DF
:102D4000052C06D04148006941F6DF7108403F4933
:102D50000861204630BDF0B505460E4617460424EE
:102D60003B483A4988603B488860E002FFF7E9FD4C
:102D70000446042C19D13548006940F0100033494D
:102D8000086147F0F800304328433349891C088024
:102D9000E002FFF7D6FD0446052C06D02B4800695B
:102DA00041F6EF710840294908612046F0BD2748E7
:102DB000C069800870472548006A70470020234991
:102DC000096801F0200109B1012000E000207047EE
:102DD00029B11E4A126902431C4B1A6104E01B4AC6
:102DE00012698243194B1A6170470146002001297C
:102DF00008D1164AD26902F001020AB1012008E0A6
:102E0000002006E0114AD2680A400AB1012000E021
:102E1000002070470D49C860704704200B49C968FD
:102E200001F0010109B101200EE00849C96801F073
:102E3000040109B1022007E00449C96801F010014A
:102E400009B1032000E00420704700000020024088
:102E500023016745AB89EFCD00F8FF1F10B50120B6
:102E6000FFF7EAFA0020FFF7E7FA10BD2A490860E9
:102E700070472949091F0860704727498431086055
:102E8000704701460020254A10884FF67F421040C7
:102E90000843224A10807047014600201F4A1088CC
:102EA0004FF68072104008431C4A1080704708B5E6
:102EB00000220092194A2C3A0092009A0244009291
:102EC000009A116008BD08B5014600200090134823
:102ED0002C3800900098084400900098008808BDA5
:102EE0000D489C300068C0B270470C48083000881C
:102EF00040F0010009490831088070470648A030B9
:102F00000068C0B2704705480830008840F00200F1
:102F1000024908310880704704860D422C6C00403D
:102F200029B1504A128802434E4B1A8004E04D4AA0
:102F3000128882434B4B1A8070474A48001D008814
:102F400040F010004749091D088070474548001DA2
:102F500000884FF6EF7108404249091D088070470C
:102F6000002140481C300188001F008841EA0040D1
:102F7000704700B50246FFF7E0FF100C39491831E1
:102F80000880091D0A80FFF7E1FF00BD00B5024679
:102F9000FFF7D3FFC2F30340324908310880091D0F
:102FA0000A80FFF7D3FF00BD00B50246FFF7C5FF5B
:102FB000100C2C4920310880091D0A80FFF7C6FF3C
:102FC00000BD00202749103109880907080B254951
:102FD000143109880843704700BF2248001D00884B
:102FE00000F020000028F8D070471E48001D00881F
:102FF0004FF6F77108401B49091D088000BF1948AA
:10300000001D008800F008000028F8D07047014635
:103010000020144A121D12880A400AB1012000E063
:10302000002070470F49091D098881430D4A121D70
:1030300011807047014600200A4A121D12880A407A
:10304000D0B2084A12880A4012B108B1012000E04B
:10305000002070470349091D09888143014A121D58
:10306000118070470028004010B501210807FFF7C4
:10307000D6F900214FF08050FFF7D1F910BD2A4951
:103080000862704728490861704701460020274AB6
:10309000106820F0E0000843106070472249A0311A
:1030A0000860704710B502460020204B186820F0D9
:1030B0000300104318601E4B1B6843F004031C4CB4
:1030C0002360012901D130BF00E020BF184B1B68ED
:1030D00023F00403164C236010BD1448006840F030
:1030E0000400124908600846006840F002000860C9
:1030F0000F48006840F004000D49086000BF00BFA1
:1031000030BF704701460020084A52680A400AB1A1
:10311000012000E0002070470449096841EA80016D
:10312000024A11607047000000000E42007000402B
:1031300010ED00E010B50446FE48844208D101219C
:10314000C014FFF75FF90021E014FFF75BF9C4E05A
:10315000B4F1804F08D101210846FFF760F9002142
:103160000120FFF75CF9B8E0F348844208D101215F
:103170000220FFF754F900210220FFF750F9ACE0DC
:10318000EE48844208D101210420FFF748F90021CC
:103190000420FFF744F9A0E0E948844208D1012166
:1031A0000820FFF73CF900210820FFF738F994E0E8
:1031B000E448844208D101211020FFF730F90021B2
:1031C0001020FFF72CF988E0DF48844208D1012164
:1031D0002020FFF724F900212020FFF720F97CE0D0
:1031E000DA48844208D101214014FFF70BF900218D
:1031F0006014FFF707F970E0D548844209D1012136
:10320000C804FFF7FFF800214FF40020FFF7FAF899
:1032100063E0D048844209D101210805FFF7F2F8A4
:1032200000214FF48010FFF7EDF856E0CA488442C1
:1032300009D101214805FFF7E5F800214FF40010FE
:10324000FFF7E0F849E0C548844208D10121402059
:10325000FFF7E5F800214020FFF7E1F83DE0C04826
:10326000844208D101218020FFF7D9F80021802075
:10327000FFF7D5F831E0BB48844208D10121801521
:10328000FFF7CDF80021A015FFF7C9F825E0B648F3
:10329000844209D101210804FFF7B4F800214FF45A
:1032A0008030FFF7AFF818E0B048844209D101211F
:1032B0004804FFF7A7F800214FF40030FFF7A2F809
:1032C0000BE0AB48844208D101218804FFF79AF84B
:1032D00000214FF48020FFF795F810BD00220288EE
:1032E000944B98420ED0994B98420BD0B0F1804F3E
:1032F00008D0914B984205D0904B984202D0904B09
:10330000984204D14FF68F731A404B881A438D4B65
:10331000984207D08C4B984204D04FF6FF431A4096
:10332000CB881A4302808B8883850B880385814B69
:1033300098420BD0854B984208D08B4B984205D0D1
:103340008A4B984202D08A4B984201D10B7A03866D
:1033500001238382704770B5002400220023058C6E
:103360004FF6FE7635400584028C8388048B4FF639
:103370008F752C40B51E2C400D882C43751E2A409D
:103380000D892A434D882A436A4DA8420BD06F4DC0
:10339000A84208D0744DA84205D0744DA84202D06E
:1033A000734DA84213D14FF6F7752A404D892A4331
:1033B0004FF6FB752A408D882A434FF6FF652B4058
:1033C0004FF6FF552B408D892B43CD892B438380AE
:1033D0000483CD888586028470BD70B500240022E8
:1033E0000023058C4FF6EF7635400584028C8388E8
:1033F000048B48F6FF752C404FF6FF452C400D8896
:103400004FF6FF7606EA05252C434FF6DF752A4076
:103410000D8906EA05152A434D8806EA05152A4353
:10342000444DA84202D0494DA8421DD14FF67F75A8
:103430002A404D894FF6FF7606EA05152A434FF6D6
:10344000BF752A408D8806EA05152A434FF6FF35D9
:103450002B404FF2FF752B408D8906EA85052B43E3
:10346000CD8906EA85052B4383800483CD880587B3
:10347000028470BD70B5002400220023058C4FF635
:10348000FF6635400584028C8388848B4FF68F75E8
:103490002C404FF6FC752C400D882C434FF6FF5501
:1034A0002A400D894FF6FF7606EA05252A434D8806
:1034B00006EA05252A431F4DA84202D0234DA84203
:1034C0001DD14FF2FF752A404D894FF6FF7606EA6F
:1034D00005252A434FF6FF352A408D8806EA052543
:1034E0002A434EF6FF752B404DF6FF752B408D8914
:1034F00006EA05152B43CD8906EA05152B43838083
:103500008483CD888587028470BD70B50022002336
:103510000024058C4EF6FF7635400584038C8488A4
:10352000828B48F6FF752A404FF6FF452A400D88EA
:1035300020E00000002C0140000400400008004092
:10354000000C004000100040001400400034014016
:10355000004C014000500140005401400018004060
:10356000001C004000200040004001400044014099
:10357000004801404FF6FF7606EA05252A434DF63E
:10358000FF752B400D8906EA05352B434D8806EA69
:1035900005352B43FA4DA84202D0FA4DA84208D176
:1035A0004BF6FF752C408D894FF6FF7606EA8515A0
:1035B0002C4384808283CD88A0F84050038470BD62
:1035C000828B4FF2FF331A408283828B4FF6FF7358
:1035D00003EA01231A4382837047F0B50C4615466F
:1035E000002200210026078C4EF6FF7C07EA0C071C
:1035F0000784828B018C4FF6FF7707EA043640F68A
:10360000FF473A404FF6FF7707EA05273A434FF660
:10361000FF7707EA03373A43D94FB8420ED0D94F64
:10362000B8420BD0B0F1804F08D0D74FB84205D088
:10363000D64FB84202D0D64FB84206D14DF6FF77EA
:10364000394046F48057394305E047F6FF57394083
:1036500044F48057394382830184F0BD828B4FF656
:10366000F3731A408283828B0A4382837047F0B5DA
:103670000C461546002200210026078C4FF6FF6CF1
:1036800007EA0C070784828B018C4FF6FF7707EA65
:1036900004264FF60C773A404FF6FF7707EA0317F8
:1036A0002F433A43B64FB8420ED0B64FB8420BD074
:1036B000B0F1804F08D0B44FB84205D0B34FB842F4
:1036C00002D0B34FB84206D14FF6FF57394046F407
:1036D0008077394305E04FF2FF57394044F4807753
:1036E000394382830184F0BD028B4FF2FF331A40CD
:1036F0000283028B4FF6FF7303EA01231A4302830E
:103700007047F0B50C461546002200210026078CB4
:103710004FF6EF7C07EA0C070784028B018C4FF60B
:10372000FF7707EA041640F6FF473A404FF6FF7767
:1037300007EA03373A434FF6FF7707EA05273A438C
:103740008F4FB8420ED08F4FB8420BD0B0F1804FA0
:1037500008D08D4FB84205D08C4FB84202D08C4F64
:10376000B84206D14FF6DF77394046F010073943AB
:1037700005E04FF65F77394044F010073943028384
:103780000184F0BD028B4FF6F3731A400283028B63
:103790000A4302837047F0B50C461546002200210B
:1037A000068C4FF6FE773E400684028B018C4FF666
:1037B0000C7632407E1C06EA03162E433243704ECE
:1037C000B0420ED06F4EB0420BD0B0F1804F08D057
:1037D0006D4EB04205D06D4EB04202D06C4EB0423C
:1037E00006D14FF6FD76314044F00106314305E045
:1037F0004FF6F576314044F00106314302830184EF
:10380000F0BD70B505460C465D4885420ED05D485A
:1038100085420BD0B5F1804F08D05B48854205D07A
:103820005A48854202D05A48854200D100E000BF84
:10383000208850B92389A28861882846FFF7ABFF0A
:10384000E1882846FFF79EFF25E0208804280AD15A
:103850002389A28861882846FFF753FFE18828461C
:10386000FFF742FF17E0208808280AD12389A288A1
:1038700061882846FFF7FBFEE1882846FFF7EEFE49
:1038800009E02389A28861882846FFF7A6FEE1881F
:103890002846FFF795FE70BD2DE9F04105460C4620
:1038A00000260127608808B9022600E00026A088CB
:1038B000012801D1022700E001272088A0B923892F
:1038C000A28861882846FFF766FFE1882846FFF74F
:1038D00059FF23893A4631462846FFF712FFE1880F
:1038E0002846FFF701FF13E02389A2886188284654
:1038F000FFF707FFE1882846FFF7F6FE23893A46DF
:1039000031462846FFF747FFE1882846FFF73AFF90
:10391000BDE8F0810A884B881A438B881A43CB880C
:103920001A430B891A434B891A438B891A43A0F80F
:10393000442070474FF6FF71818000210180C180D3
:103940004180017270470021018041808180C180E7
:10395000018141818181C1817047002101804180C5
:10396000012181800021C1800181704700210180F7
:1039700041808180C1800181418181817047000047
:10398000002C0140003401400004004000080040C9
:10399000000C004021B1028842F00102028004E0E4
:1039A00002884FF6FE731A400280704731B1B0F8BA
:1039B000442042F40042A0F8442005E0B0F844203E
:1039C000C2F30E02A0F8442070471AB183890B435A
:1039D000838102E083898B438381704781827047B2
:1039E00041EA0203A0F8483070471AB183890B43BB
:1039F000838102E083898B438381704701894FF67D
:103A0000F8721140018170470A46002101894FF682
:103A10008F73194011430181704730B504460D463C
:103A200029462046FFF7F0FF208940F0070020815B
:103A300030BD2DE9F04104460D4616461F46602D67
:103A400006D13B46012231462046FFF75AFE05E0EB
:103A50003B46012231462046FFF79DFE294620467F
:103A6000FFF7D2FF208940F007002081BDE8F081F8
:103A700030B50C4600210189C9B24FF6FF7505EA41
:103A80000325154325432943018130BD2DE9F0412C
:103A900005460E4617469846002443463A463146A8
:103AA0002846FFF7E5FF2C894FF6F870044044F0F4
:103AB00007044FF68F70044044F070042C81BDE879
:103AC000F081F0B504460D4616461F463B46324689
:103AD00029462046FFF7CCFF208940F48040208112
:103AE000F0BD0185828270470A46002101884FF6A9
:103AF0008F731940114301807047F0B50C4615468D
:103B00001E460021002200230189028B038C4FF600
:103B1000F877394021434FF6FC473A4040F201170D
:103B20003A434FF6DD773B404FF6FF7707EA06173B
:103B30002F433B43018102830384F0BD0A460021E9
:103B4000018B4FF68F7319401143018370470A466A
:103B50000021018B48F6FF7319404FF6FF7303EA0B
:103B600002231943018370470A460021818B4FF6D7
:103B70008F7319401143818370470A460021818B5E
:103B800048F6FF7319404FF6FF7303EA0223194307
:103B90008183704721B1028842F08002028004E0F4
:103BA00002884FF67F731A400280704721B18288E5
:103BB00042F00402828004E082884FF6FB731A40D0
:103BC0008280704721B1828842F00802828004E03E
:103BD00082884FF6F7731A408280704721B182883D
:103BE00042F00102828004E082884FF6FE731A40A0
:103BF000828070470A460021018B4FF6F773194007
:103C00001143018370470A460021018B4FF2FF7375
:103C100019404FF6FF7303EA0223194301837047EB
:103C20000A460021818B4FF6F773194011438183B7
:103C300070470A460021818B4FF2FF7319404FF6FF
:103C4000FF7303EA02231943818370470A46002168
:103C5000018B4FF6FB7319401143018370470A46ED
:103C60000021018B4FF6FF3319404FF6FF7303EA33
:103C700002231943018370470A460021818B4FF6C6
:103C8000FB7319401143818370470A460021818BE1
:103C90004FF6FF3319404FF6FF7303EA022319432F
:103CA000818370470A460021018B4FF67F731940CC
:103CB0001143018370470A460021018BC1F30E01B5
:103CC0004FF6FF7303EA02231943018370470A4644
:103CD0000021818B4FF67F73194011438183704718
:103CE0000A460021818BC1F30E014FF6FF7303EAF0
:103CF00002231943818370470A460021018C4FF645
:103D0000FD7319401143018470470A460021018C5C
:103D10004FF6F77319401143018470470A4600219A
:103D2000018C4FF6DF7319404FF6FF7303EA02135D
:103D30001943018470470A460021018C4FF67F73B6
:103D400019404FF6FF7303EA0213194301847047C9
:103D50000A460021018C4FF6FF5319404FF6FF73BE
:103D600003EA02231943018470470A460021018CAB
:103D70004FF2FF7319404FF6FF7303EA0223194312
:103D8000018470470A460021018C4DF6FF731940EB
:103D90004FF6FF7303EA023319430184704730B5CD
:103DA000002301248C40A3B2048C9C430484048C23
:103DB00002FA01F5ADB22C43048430BD30B50023C6
:103DC00004248C40A3B2048C9C430484048C02FA27
:103DD00001F5ADB22C43048430BD70B5034600201C
:103DE00000241846183001258D40ACB21D8CA54327
:103DF0001D8409B1082909D100EB6100056825F08F
:103E0000700505600568154305600EE00D1FC5F3DC
:103E10004E052844056825F4E045056005684FF621
:103E2000FF7606EA02263543056070BD21B102889F
:103E300042F00202028004E002884FF6FD731A404D
:103E40000280704721B1028842F00402028004E03F
:103E500002884FF6FB731A400280704721B18288B6
:103E600042F08002828004E082884FF67F731A401D
:103E70008280704702884FF6F7731A4002800288EA
:103E80000A430280704782884FF68F731A408280FF
:103E900082880A438280704702894FF6F8731A407D
:103EA000028102890A430281704702894FF67F73BB
:103EB0001A40028102890A43028170478184704757
:103EC0008185704781867047018770478187704779
:103ED000A0F84010704702884FF6FF431A40028056
:103EE00002880A43028070470146888E7047014667
:103EF000088F70470146888F70470146B1F840002F
:103F000070470146888C70470146088D704702460D
:103F10000020138A0B400BB1012000E00020704705
:103F2000CA430282704730B50246002000230024B5
:103F3000158A05EA0103958905EA010413B10CB15C
:103F4000012000E0002030BDCA4302827047704764
:103F50000FB4044910B503AA029800F0B1F910BCDF
:103F60005DF814FB6C0000200FB41CB5074B06AACB
:103F70007B4469460090059800F089F90020694665
:103F800000F098F91CBC5DF814FB00004103000030
:103F90002DE9F0410E460446002020622046E168EB
:103FA000884730B3252805D0D4E901219047206AFD
:103FB000401CF2E7E168204600278847050018D03A
:103FC000A5F14100192802D820354FF40067324688
:103FD000294620462760FCF7C3F840B1012804D0E9
:103FE000F61D26F007060836D8E7361DD6E7284620
:103FF000DAE7206ABDE8F0812DE9F04106460024A9
:1040000010687529314615A510D0AFF3008000283F
:1040100002DA404212A507E031688A0701D511A5EE
:1040200002E0490704D510A5012401E0AFF30080A8
:1040300000210A2306F1240707E0B0FBF3F203FB9B
:104040001200303078541046491C0028F5D1234620
:104050002A463046BDE8F04100F0BAB80000000042
:104060002D0000002B0000002000000070B5044669
:1040700021461068AFF30080002104F1240505E01B
:1040800000F007023032C0086A54491C0028F7D1FA
:104090002068002308A2050708D500F02000084387
:1040A00004D0E069012305A2401EE0612046BDE87E
:1040B000704000F08DB800000000000030000000EB
:1040C00070B504460D4621461068AFF30080218884
:1040D000090502D50F4A7A4402E00E4A7A440E32AC
:1040E000002104F1240305E000F00F060009965DAD
:1040F0005E54491C0028F7D120780023000704D51E
:10410000702D02D009B1022311322046BDE8704063
:1041100000F05EB86022000070B5064600F054F86A
:104120000468054630460A22002100F0DBF82C60C6
:1041300070BD10B5431C02E010F8011B71B181077E
:10414000FAD14FF0013202C88C1A8C4314EAC21122
:10415000F9D0C01A0A0603D0C01E10BDC01A10BD87
:104160000A0401D0801E10BD0902FCD0401E10BD03
:104170004FF0000200B5134694469646203922BF00
:10418000A0E80C50A0E80C50B1F12001BFF4F7AF4B
:10419000090728BFA0E80C5048BF0CC05DF804EB2D
:1041A000890028BF40F8042B08BF704748BF20F89B
:1041B000022B11F0804F18BF00F8012B7047704799
:1041C000704770477047000000487047AC050020FA
:1041D0002DE9F0470D4699469246044600F1240821
:1041E0000168880604D5E06921F01001216000E033
:1041F0000120A84201DD471B00E00027A1697A19D0
:1042000002EB0900081AA0612078C00602D42046FB
:10421000AFF30080002608E0D4E901211AF8060077
:104220009047206A401C761C20624E45F4DB2078C3
:10423000C0060AD52046AFF3008006E0D4E901218C
:1042400030209047206A401C2062381EA7F10107E9
:10425000F4DC07E0D4E9012118F805009047206A52
:10426000401C2062281EA5F10105F3DC2046AFF3B7
:1042700000802078000602D50220BDE8F0870120EA
:10428000FBE7000001694A1C02610878704700B52D
:104290008FB0CDE901310021059105497944CDE97F
:1042A000031011466846FFF773FE0FB000BD000013
:1042B000E5FFFFFF0A6802F8010B0A607047000083
:1042C000074B70B50D467B44FFF7E1FF04462846D7
:1042D00000F09BF810B14FF0FF3070BD204670BD6C
:1042E00077D8FFFF2DE9F04791460F4680460446F8
:1042F000002614F8015B2DB100F030F80068405D35
:10430000C007F6D12B2D02D02D2D18D0641E4A46A1
:104310003946204600F02AF827B13968A14201D178
:10432000C7F800804FF0020471050BD54042002809
:1043300003DDFFF749FF0460A007BDE8F08746F4FE
:104340008066E4E70028F8DAFFF73EFF04606FF0CC
:104350000040F2E700487047AC05002010B500F0BF
:104360007DF8001D10BD00BFA50100002DE9F05F24
:10437000824615468B4600270AF10104B9460078AB
:10438000302801D09DB113E014F8010B01277828E3
:1043900003D0582801D045B10AE00DB1102D07D146
:1043A000002714F8010B102502E0082500E00A257B
:1043B0000026B0460EE005FB080005FB06F10127CC
:1043C0001FFA80F801EB1046B6F5803F00D3B946DE
:1043D00014F8010B294600F045F80028EBDABBF190
:1043E000000F05D00FB1641E00E05446CBF800402A
:1043F000B9F1000F06D0FFF7E7FE02210160C81EE9
:10440000BDE8F09F48EA0640FAE7007B00F0800034
:1044100070477546FFF79EFFAE4605006946534656
:1044200020F00700854618B020B5FDF735FCBDE843
:1044300020404FF000064FF000074FF000084FF00B
:10444000000B21F00701AC46ACE8C009ACE8C0099C
:10445000ACE8C009ACE8C0098D4670470048704719
:10446000CC0500203A2800D2303820F02002412A22
:1044700001D3A2F13700884201D34FF0FF307047DB
:104480000446AFF300802046FBF78BFE4FF0013C63
:1044900050F8042B51F8043B9A4221D1A2EB0C03B3
:1044A000934313EACC1317D150F8042B51F8043B73
:1044B0009A4215D1A2EB0C03934313EACC130BD110
:1044C00050F8042B51F8043B9A4209D1A2EB0C039B
:1044D000934313EACC13DBD04FF00000704700BFCA
:1044E000D01A01BAB1FA81F101F0180122FA01F0F3
:1044F000CB40C1F12001DBB2C0B2C01A2CFA01F3EB
:10450000D11A914311EAC311E6D1704710B50029C1
:104510000AD00878002807D005487844FFF7B6FF8E
:10452000002801D0002010BD0248784410BD0000D2
:104530006A1E0000621E0000000000000000000073
:104540004C400000000202020000207C28283E208F
:10455000006C4A7424000C523C7C5270304C7A6CD3
:1045600050400002000000000000007C8200004279
:104570003C0000000018381018000000101810004F
:1045800000C00000000008080808080800400000FB
:104590000000004030080600007C42427C00000021
:1045A000447C0000006462524C000064424A7C007B
:1045B0000010287C2000006C4C4C7000007C4A4AA3
:1045C00074000004641C0400007C4A527C00005CFF
:1045D00052523C000000484800000000C8000000A3
:1045E0000018282442000018181818000042242837
:1045F0001800000462520C0018647A566C1840309F
:104600001C1C7000007C54545C20186442424224FC
:10461000007C44442418007C54544400007C14144E
:104620001C04384442426400007C10107C000000EE
:104630007C440000808080FC0400007C0834400042
:10464000007C40404000704C70107C00007C0810E2
:104650003C00186442424438007C14140C04384472
:104660006242C438007C14146C00004C4A5274003E
:1046700004047C040404007C40407C00000C3030C6
:104680000C00003C143C1C04004428384400000486
:10469000780804000064544C44000000FE8280004E
:1046A000000608304000008082FE00000001010189
:1046B0000100808080808080000101000000006097
:1046C00058587040007E48487000007048484000CC
:1046D000007048487E4000706868500000087C0CFC
:1046E0000C0000F0E8E8D808007E08087000000818
:1046F00078400000008080887A00007E10384800F2
:1047000000007E400000784848704870087808082B
:10471000700000704848700008F848487000007049
:104720004848F000084870080800005058686800C1
:1047300000087C484800087840407840081820204D
:1047400018000838283838080048383848000098D9
:10475000A06018080048685848000000007E8000EB
:10476000000000FF000000807E0000000001010248
:104770000200000000000000000000000000000037
:104780000000000000F800000000000000330000FE
:10479000000000100C02100C0200000000000000DD
:1047A00000000040C07840C0780000043F04043F8F
:1047B000040000708888FC08300000182020FF21C9
:1047C0001E00F008F0806018000000310C031E216C
:1047D0001E0000F00888700000001E21232C1927FD
:1047E000211000120E000000000000000000000078
:1047F0000000000000E0180402000000000718207C
:10480000400000020418E0000000004020180700EB
:104810000000404080F0804040000202010F010291
:10482000020000000000E0000000000101010F0193
:104830000101000000000000000000907000000076
:104840000000000000000000000000010101010163
:1048500001000000000000000000003030000000F7
:10486000000000000000C0380400006018070000CD
:10487000000000E010080810E000000F10202010D9
:104880000F0000001010F8000000000020203F2062
:104890002000007008080808F000003028242221B9
:1048A00030000030080808887000001820212122FC
:1048B0001C000000804030F8000000060524243F62
:1048C000242400F888888808080000192020201176
:1048D0000E0000E0108888900000000F11202020BA
:1048E0001F0000180808886818000000003E01003A
:1048F00000000070880808887000001C2221212216
:104900001C0000F008080810E0000001122222112B
:104910000F00000000C0C0000000000000303000A8
:1049200000000000008000000000000000E0000027
:104930000000000080402010080000010204081060
:1049400020000040404040404000000202020202BD
:10495000020000081020408000000020100804021F
:10496000010000704808088870000000003037001F
:104970000000C030C828E810E000071827282F28BA
:1049800017000000C038E0000000203C230202278E
:10499000382008F8888888700000203F20202011E7
:1049A0000E00C03008080808380007182020201022
:1049B000080008F808080810E000203F2020201018
:1049C0000F0008F88888E8081000203F20202320E6
:1049D000180008F88888E8081000203F200003002D
:1049E0000000C03008080838000007182020221EE8
:1049F000020008F808000008F808203F2101012102
:104A00003F20000808F8080800000020203F202070
:104A1000000000000808F8080800C08080807F00BF
:104A2000000008F888C028180800203F2001263818
:104A3000200008F8080000000000203F202020206F
:104A4000300008F8F800F8F80800203F013E013F68
:104A5000200008F830C00008F808203F20000718A0
:104A60003F00E01008080810E0000F102020201080
:104A70000F0008F808080808F000203F2101010194
:104A80000000E01008080810E0000F10282830503F
:104A90004F0008F8888888887000203F2000030CA9
:104AA00030200070880808083800003820212122B2
:104AB0001C00180808F8080818000000203F200013
:104AC000000008F808000008F808001F2020202037
:104AD0001F000878880000C83808000007380E0159
:104AE000000008F800F800F8080000033E013E034B
:104AF0000000081868808068180820302C03032CF8
:104B000030200838C800C83808000000203F2000C6
:104B1000000010080808C838080020382621202086
:104B20001800000000FE020202000000007F40406A
:104B30004000000438C000000000000000010638FA
:104B4000C00000020202FE000000004040407F0062
:104B50000000000004020204000000000000000049
:104B60000000000000000000000080808080808045
:104B7000808000020204000000000000000000002D
:104B80000000000080808000000000192424123FF3
:104B9000200010F0008080000000003F1120201154
:104BA0000E000000008080800000000E11202020F8
:104BB0001100000080808090F000001F2020201055
:104BC0003F200000808080800000001F24242424D7
:104BD0001700008080E0909020000020203F2020DF
:104BE00000000000808080808000006B949494938B
:104BF000600010F0008080800000203F2100002035
:104C00003F2000809898000000000020203F2020D6
:104C10000000000000809898000000C08080807F25
:104C2000000010F0000080808000203F2406293022
:104C30002000001010F8000000000020203F20207D
:104C400000008080808080808000203F20003F2006
:104C5000003F8080008080800000203F21000020F5
:104C60003F200000808080800000001F2020202046
:104C70001F00808000808000000080FF91202011B4
:104C80000E000000008080008000000E11202091A6
:104C9000FF80808080008080800020203F212000D5
:104CA00001000000808080808000003324242424C0
:104CB0001900008080E0808000000000001F20209C
:104CC00010008080000000808000001F2020201045
:104CD0003F20808080008080800000030C300C0327
:104CE00000008080008080008080010E300C07383A
:104CF000060100808080008080000020310E2E316F
:104D000020008080800000808080008186781806E6
:104D1000010000808080808080000021302C2221D2
:104D200030000000000000FC020200000000013E14
:104D3000404000000000FF00000000000000FF00F5
:104D400000000202FC000000000040403E010000A4
:104D50000000000201020204020000000000000046
:104D600000001060028C0000FE9292929292FE006F
:104D7000000004047E01407E42427E427E42427E2A
:104D800040000000FC242424FC252624FC242424A8
:104D9000040040308F80844C55252525554C80805B
:104DA00080001060028C00FE929292929292FE001D
:104DB000000004047E014448507F40407F50484436
:104DC00040000000FC242424FC252624FC24242468
:104DD000040040308F80844C55252525554C80801B
:104DE000800000000C12120C000000000000000007
:104DF00000000000000000000000000000000000B3
:104E00000000000000FE2222222222222222FE0096
:104E100000008040300F02020202020242827F0044
:104E20000000000000FE82828282828282FE0000F8
:104E30000000000000FF40404040404040FF0000B4
:104E400000000000E28282828282828282FE000072
:104E5000000000003F40404040404040404040781B
:104E60000000008060F807003E2222E222223E007D
:104E70000000010000FF2011090503FF03050911CF
:104E80002000040484E41C0724242424A4642404AF
:104E90000400020100FF00020242827F02020202BD
:104EA0000200000000000000000000000000000000
:104EB00000000000000000000000000000000000F2
:104EC0000000000000000000FF4040404040400063
:104ED00000004040404040407F4040404040404013
:104EE000400000FE225A8600FE9292929292FE00AC
:104EF000000000FF04080700FF4020030C142241BB
:104F00004000020202020202FE0202428202020289
:104F10000200000000000000FF0000000001060089
:104F20000000000000000000000000000000000081
:104F30000000000000808080800000000000000071
:104F40000000000000000000000000000000000061
:104F50000000000000000000000000000000000051
:104F60000000000000000000000000000000000041
:104F70000000000000000000000000000000000031
:104F80000000000000000000000000000000000021
:104F90000000000000000000000000000000000011
:104FA0000000000000C0C0E0E060606060E0E0C0C1
:104FB000C0800000070F0F0F0F0700000000000067
:104FC00000000000000000000000000000000000E1
:104FD00000000000000000000000000000000000D1
:104FE00000000000000000000000000000000000C1
:104FF00000000000000000000000000000000000B1
:1050000000000000000000000000000000000000A0
:105010000000000000000000000000000000000090
:105020000000F8FEFF07010000C0C04000000001C2
:1050300003DFFFFC000000000000000000F0F0F0C3
:10504000F0F0F0F0F0F0F0F0F0F0F0F0F0F0F0F060
:10505000E0000000000080F0F0F080F0F0F0C0C050
:10506000F0F0F0C0C0C0C0C0F0F0F0C0C000000060
:10507000008080808080808080F0F0F0F0808080F0
:105080008080808080000000000000000070707050
:1050900070707070707070707070F0F0F0F0F07090
:1050A00000000003070F1CF8FE3F33303038381C77
:1050B0001E0F0701000000000000000000FFFFFFBE
:1050C000FF003EFEFEFCC0C0FCFEFE3E00FFFFFFF8
:1050D000FF000000000003FFFFFF03FFFFFF0301CD
:1050E000FFFFFFEDEDEDEDEDFFFFFF010100000023
:1050F00000FFFFFFFF73737373FFFFFFFF73737393
:1051000073FFFFFFFF000000000000C0C0C0C0C070
:10511000C0C0C0C0C0F8F8FCFEDFDFCFC7C3C0C04E
:10512000C0000000000000FFFFC000000000000001
:1051300000000000000000000000000080FFFFFFF2
:10514000FFE0E0F17F7F3F3F7F7FF1E0C0FFFFFFA7
:10515000FF8000000000009FFFFFFCFFBF078ECE16
:10516000FEFE7EFFFFFFFF7EFEFEEE8E0E000000C5
:10517000001F1F1F1F1C1C1C1CFFFFFFFF9C1C1C73
:105180001C1F1F1FEFE0E0000000000101010101F2
:105190000101010181FFFFFFFF0101010101010187
:1051A00001000000000000000707000000000000F0
:1051B00000000000000000000000000007070301DD
:1051C00000010100000000000000000101000103D7
:1051D0000707000000000707030101030707030397
:1051E0000100000707070700000103030300000098
:1051F0000000000000000000000103070707070788
:105200000707070707030300000000000000000075
:105210000007070707070703010000000000000060
:10522000000000000000000000000000000000007E
:10523000000000000000000000000000000000006E
:10524000000000000000000000000000000000005E
:10525000000000000000000000000000000000004E
:10526000000000000000000000000000000000003E
:10527000000000000000000000000000000000002E
:10528000000000000000000000000000000000001E
:10529000000000000000000000000000000000000E
:1052A00000000000000000000000000000000000FE
:1052B00000000000000000000000000000000000EE
:1052C00000000000000000000000000000000000DE
:1052D00000000000000000000000000000000000CE
:1052E00000000000000000000000000000000000BE
:1052F00000000000000000000000000000000000AE
:10530000000000000000000000000000000000009D
:10531000000000000000000000000000000000008D
:10532000000000000000000000000000000000007D
:10533000000000000000000000000000000000006D
:10534000000000000000000000000000000000005D
:105350000080C0E0F0F8F8F8F0E0C0800000000045
:10536000000000000000000000000000000000003D
:10537000000000000000000000000000000000002D
:10538000000000000000000000000000000000001D
:10539000000000000000000000000000000000000D
:1053A00000000000000000000000000000000000FD
:1053B00000000000000000000000000000000000ED
:1053C00000000000000000000080C0E0F0F8FC7E5B
:1053D0003F1F0F070301000103070F1F3F7EFCF86B
:1053E000F0E0C080000000000000000000000000AD
:1053F00000000000000000000000000000000000AD
:10540000000000000000000000000000000000009C
:10541000000000000000000000000000000000008C
:10542000000000000000000000000000000000007C
:10543000000000000000000000000000000000006C
:105440000000000000183C3E3F3F3F3F3D3DFCFC5C
:10545000FCF8000000000000000000F8FCFCFC3D2F
:105460003F3F3F3F3F3E3C10000000000000000077
:10547000000000000000000000000000000000002C
:10548000000000000000000000000000000000001C
:10549000000000000000000000000000000000000C
:1054A00000000000000000000000000000000000FC
:1054B00000000000000000000000000000000000EC
:1054C0000000000000000000000000000000FFFFDE
:1054D000FF7F000000000000000000FFFFFFFF0052
:1054E00000000000000000000000000000000000BC
:1054F00000000000000000000000000000000000AC
:10550000000000000000000000000000000000009B
:10551000000000000000000000000000000000008B
:10552000000000000000000000000000000000007B
:10553000000000000000000000000000000000006B
:10554000000000000000000000000000000000005B
:105550000000000000000000000000FFFFFFFF004F
:105560000000000000000000FEFFFFFF0000000040
:10557000000000000000000000000000000000002B
:10558000000000000000000000000000000000001B
:10559000000000000000000000000000000000000B
:1055A00000000000000000000000000000000000FB
:1055B00000000000000000000000000000000000EB
:1055C00000000000000000000000000000000000DB
:1055D0000000183C7CFCFCFCFCFCBC3F3F3F1F0077
:1055E00000000000000000001F3F3F3FBCFCFCFC2F
:1055F000FCFC7C3C180000000000000000000000E3
:10560000000000000000000000000000000000009A
:10561000000000000000000000000000000000008A
:10562000000000000000000000000000000000007A
:10563000000000000000000000000000000000006A
:10564000000000000000000000000000000000005A
:105650000000000000000103070F1F3F7EFCF8F070
:10566000E0C0800080C0E0F0F8FC7E3F1F0F070321
:105670000100000000000000000000000000000029
:10568000000000000000000000000000000000001A
:10569000000000000000000000000000000000000A
:1056A00000000000000000000000000000000000FA
:1056B00000000000000000000000000000000000EA
:1056C00000000000000000000000000000000000DA
:1056D00000000000000000000000000000000103C6
:1056E000070F1F1F1F0F070301000000000000002D
:1056F00000000000000000000000000000000000AA
:105700000000000000000000000000000000000099
:105710000000000000000000000000000000000089
:105720000000000000000000000000000000000079
:105730000000000000000000000000000000000069
:105740000000000000000000000000000000000059
:1057500000000000000000000000000000000080C9
:1057600080000000000000000000000000000000B9
:105770000000000000000000000000000000000029
:105780000000000000000000000000000000000019
:105790000000000000000000000000000000000009
:1057A00000000000000000000000000000000000F9
:1057B00000000000000000000000000000000000E9
:1057C0000000000000000000000000000000004099
:1057D000E0E0C08000000000008080C0C0C0FFFF8B
:1057E000FFFFC0C0C08080000000000080C0E0E07B
:1057F0004000000000000000000000000000000069
:105800000000000000000000000000000000000098
:105810000000000000000000000000000000000088
:105820000000000000000000000000000000000078
:105830000000000000000000000000000000000068
:105840000000000000000000000000000000000058
:105850000081E3FFFF7E3E1F8FC7C7E3E3F1F10145
:10586000010101030307070F1F3E7EFFF7E38100DD
:105870000000000000000000000000000000000028
:105880000000000000000000000000000000000018
:105890000000000000000000000000000000000008
:1058A00000000000000000000000000000000000F8
:1058B00000000000000000000000000000000000E8
:1058C0000000000000000000002070707070707018
:1058D000FCFFFFFF0100F8FEFFFFFFFFFFFFFF00DF
:1058E000000000000000000000000001FFFFFFFCBE
:1058F00070707070707020000000000000000000E8
:105900000000000000000000000000000000000097
:105910000000000000000000000000000000000087
:105920000000000000000000000000000000000077
:105930000000000000000000000000000000000067
:105940000000000000000000000000000000000057
:10595000010F3FFFFCF0C0870F1F3F3F7F7F7F009D
:10596000000000000000000080C0F0FCFF3F0F01BD
:105970000000000000000000000000000000000027
:105980000000000000000000000000000000000017
:105990000000000000000000000000000000000007
:1059A00000000000000000000000000000000000F7
:1059B00000000000000000000000000000000000E7
:1059C00000000000000000000000000000000010C7
:1059D000383C1E0F07030307070F0E1E1C1CFCFCA0
:1059E000FCFC1C1C1E0E0F07070303070F1E3C3890
:1059F0001000000000000000000000000000000097
:105A00000000000000000000000000000000000096
:105A10000000000000000000000000000000000086
:105A20000000000000000000000000000000000076
:105A30000000000000000000000000000000000066
:105A40000000000000000000000000000000000056
:105A50000000000000000000000000000000070F30
:105A60000F07000000000000000000000000000020
:105A70000000000000000000000000000000000026
:105A80000000000000000000000000000000000016
:105A90000000000000000000000000000000000006
:105AA00000000000000000000000000000000000F6
:105AB00000000000000000000000000000000000E6
:105AC00000000000000000000000000000000000D6
:105AD00000000000000000000000000000000000C6
