:020000040800F2
:10000000D8070020BD150008E5020008E702000837
:10001000EB020008EF020008F302000800000000F5
:10002000000000000000000000000000F7020008CF
:10003000F902000800000000FB020008FD020008B1
:10004000D7150008D7150008D71500082712000893
:10005000D7150008D7150008D7150008D7150008D0
:10006000D7150008D7150008D7150008D7150008C0
:10007000D7150008D7150008D7150008D7150008B0
:10008000D7150008D7150008D7150008D7150008A0
:10009000D7150008D7150008D7150008D715000890
:1000A000D7150008D7150008D7150008D715000880
:1000B000D7150008EB05000800000000D715000860
:1000C000D71500080000000000000000D715000848
:1000D000000000003115000899060008000000002B
:1000E000D7150008D7150008D715000800F002F84A
:1000F00000F045F80AA090E8000C82448344AAF17D
:100100000107DA4501D100F03AF8AFF2090EBAE87A
:100110000F0013F0010F18BFFB1A43F0010318473B
:100120005C5300007C530000103A24BF78C878C1AB
:10013000FAD8520724BF30C830C144BF04680C60ED
:10014000704700000023002400250026103A28BF35
:1001500078C1FBD8520728BF30C148BF0B60704739
:10016000642903F00B816F2903F04481782903F09F
:100170006B81002070471FB51FBD10B510BD03F087
:1001800067FA1146FFF7F7FF00F008F803F085FA69
:1001900003B4FFF7F2FF03BC01F070F90EB50020C5
:1001A00000900190029001F0FFF84FF4A06001F080
:1001B00025FA4FF4E13001F06FF900F091F900F009
:1001C000E2F94FF4165000F080FA00F05DFB00F009
:1001D000CAFF00F008FD41F61F41632000F0A6F9B8
:1001E000002000F017FD102330A20321002000F0B2
:1001F000DAFD08232FA20321212000F073FD08233C
:100200002DA20621002000F0CEFD082329A2062100
:10021000212000F067FD082326A20021102000F015
:1002200061FD082323A20021282000F05BFD0823A4
:1002300023A200215C2000F055FD082321A2032108
:100240004C2000F04FFD08231FA20321382000F0AE
:1002500049FD08231DA20621442000F043FD082388
:1002600019A20621382000F03DFD082318A2032121
:10027000442000F098FD18E01648007800F00800CF
:1002800070B100BF1348007800F008000028F9D1D1
:100290001148006808B9012000E000200E490860FC
:1002A00000200E4908700E490870E5E7E6B8A9E598
:1002B000BAA600003A000000E6B9BFE5BAA6000001
:1002C0002D000000430000002E000000250000006B
:1002D000E995800017000020B48121421900002018
:1002E00018000020704700BFFEE700BFFEE700BF18
:1002F000FEE700BFFEE77047704770477047000099
:100300000CB50020019000906C48006840F48030EB
:100310006A49086000BF6948006800F40030009036
:100320000198401C0190009818B90198B0F5A06F91
:10033000F1D16248006800F4003010B10120009053
:1003400001E0002000900098012843D15C4800683B
:1003500040F010005A4908600846006820F0030089
:1003600008600846006840F0020008605348406892
:10037000524948600846406848600846406840F472
:10038000806048600846406820F47C104860084659
:10039000406840F4E81048600846006840F080700B
:1003A000086000BF4548006800F000700028F9D0E0
:1003B0004248406820F003004049486008464068D1
:1003C00040F00200486000BF3C48406800F00C006C
:1003D0000828F9D10CBD10B5FFF792FF10BD10B57C
:1003E0003648006840F0010034490860084640681B
:1003F000344908403149486008460068324908409D
:100400002E4908600846006820F4802008600846ED
:10041000406820F4FE0048604FF41F008860FFF73A
:10042000DAFF4FF000602949086010BD10B50021C7
:1004300000200022214B5B6803F00C0121B104294C
:1004400006D0082928D107E0214B224C236027E061
:100450001F4B204C236023E0184B5B6803F47010A3
:10046000164B5B6803F48032022303EB904022B901
:10047000194B4343174C23600DE0104B5B6803F4AA
:10048000003323B1144B4343124C236003E0104B61
:100490004343104C236003E00D4B0E4C236000BF20
:1004A00000BF064B5B68C3F303130C4CE15C094BC4
:1004B0001B68CB40074C236010BD000000100240B9
:1004C000002002400000FFF8FFFFF6FE08ED00E00C
:1004D00000127A000000002000093D000400002006
:1004E00008B50121182001F013FC4FF40050ADF8BD
:1004F000000010208DF8030002208DF802006946EC
:10050000084801F049F94FF20800ADF8000010204A
:100510008DF8030003208DF802006946024801F0BF
:100520003BF908BD00100140000C01407FB50546B5
:100530000C460121022001F0F8FBADF80850ADF89F
:1005400004400020ADF80A00ADF8060001A94748B4
:1005500002F086F801221146444802F0F8FB1D2003
:100560008DF8000000208DF8010003208DF80200B6
:1005700001208DF80300684601F045F801213B4851
:1005800002F0CAFB7FBD08B50121082001F0C0FBC5
:100590004FF47C70ADF8000048208DF803006946E8
:1005A000334801F0F9F808BD042119E0314A02EBA3
:1005B0008100D0F8000148B9081F012202FA00F0BA
:1005C0002D4A127810432C4A107007E0081F0122B0
:1005D0008240294800789043274A1070481CC1B2D5
:1005E0000A29E3DB24480078704710B501211F4831
:1005F00002F06CFEFFF7D8FF20490870084600782B
:100600001F490978884207D000201E4908701B48FE
:1006100000781B49087010BD1A480078401C194921
:1006200008700846007801281DDB01200870144876
:1006300000781549087008460078144909788843FD
:1006400013490978084312490870104800780E4988
:10065000097888430F49097808430E4908700A4809
:1006600000780A49087000BFD5E700000004004088
:10067000000C0140008021421C00002014000020DA
:100680001500002016000020170000201A0000208E
:10069000180000201900002010B540F225515F48D5
:1006A00001F05AFD80B15D4801F0D6FCC4B25C484F
:1006B0000078402808DA5B4859490978445458487A
:1006C0000078401C5649087010BD10B586B004462D
:1006D0000121242001F01CFB0121480401F025FB2D
:1006E0008020ADF8140010208DF8170003208DF83D
:1006F000160005A94C4801F04FF80420ADF814008D
:1007000018208DF8170005A9484801F045F8082081
:10071000ADF8140004208DF8170005A9434801F036
:100720003BF80121480401F01AFB00214FF400308E
:1007300001F015FB01940020ADF80800ADF80A00A7
:10074000ADF80C00ADF810000C20ADF80E0001A9BA
:10075000324801F084FB26208DF8000003208DF83C
:1007600001008DF8020001208DF80300684600F0BA
:100770004AFF012240F22551284801F008FC0121DE
:10078000264801F0F8FB00202949086006B010BD9A
:1007900070B505460E4601202549086000240CE08E
:1007A00000BF40211D4801F0C1FC0028F9D0295D9F
:1007B0001A4801F04DFC601CC4B2B442F0DB00BF2B
:1007C0004021164801F0B2FC0028F9D0002014495D
:1007D00008701749086070BD2DE9F04107460D46C5
:1007E0000F4806780024002028700A2000F019FE27
:1007F0000B48007886420FD176B100BF04E009486B
:10080000005D3855601CC4B2B442F8DB044800787F
:100810002870002002490870BDE8F08100440040C3
:100820001D00002064000020001401400008014069
:100830009C81224208B50121082001F069FA4FF499
:100840008060ADF8000048208DF8030069469A48A2
:1008500000F0A2FF08BD08B50121082001F058FAF8
:100860004FF48060ADF8000014208DF803000320E1
:100870008DF802006946904800F08EFF4FF48061C9
:100880008D4801F036F808BD08B50121082001F0B7
:100890003FFA4FF48060ADF8000014208DF803009B
:1008A00003208DF802006946834800F075FF4FF47D
:1008B0008061814801F01DF80121082001F028FA2B
:1008C0004FF40060ADF8000069467B4800F064FF1B
:1008D0004FF40061784801F00CF808BD10B5FFF73F
:1008E000BAFF4FF40061744801F003F84FF48061DF
:1008F000714800F0FEFF012000F06FFD4FF48061B1
:100900006D4800F0F8FF012000F067FD4FF4006132
:10091000694800F0F0FF10BD10B5FFF79CFF4FF4E1
:100920008061654800F0E7FF4FF40061624800F025
:10093000E0FF012000F051FD4FF480615E4800F0BF
:10094000D8FF012000F049FD4FF400615A4800F043
:10095000D2FF10BD70B50446FFF77DFF002521E0F2
:1009600004F0800028B14FF48061534800F0C1FFCB
:1009700004E04FF48061504800F0BDFF6006040EB3
:100980004FF400614C4800F0B4FF012000F025FD59
:100990004FF40061484800F0AEFF012000F01DFD5B
:1009A000681CC5B2082DDBDB70BD70B50025FFF7F4
:1009B00041FF012000F011FD072420E04FF4006109
:1009C0003D4800F096FF012000F007FD4FF48061E4
:1009D000394800F074FF20B10120A0402843C5B27F
:1009E00003E00020A0402843C5B24FF40061324824
:1009F00000F081FF012000F0F0FC601E44B2002CEA
:100A0000DCDA284670BD10B5FFF725FF4FF4806192
:100A1000294800F070FF4FF40061274800F069FF9B
:100A2000012000F0DAFC4FF48061234800F061FF00
:100A30004FF40061204800F05EFF10BD10B5FFF7D5
:100A40000AFF4FF480611C4800F053FF4FF400612F
:100A5000194800F04EFF012000F0BFFC4FF4006188
:100A6000154800F048FF10BD10B50024FFF7E2FE66
:100A70004FF40061104800F03CFF0EE0601CC0B273
:100A80000446322806DD4FF400610B4800F033FFC6
:100A9000002010BD012000F0A0FC4FF4806106484A
:100AA00000F00DFF0028E9D14FF40061024800F08A
:100AB00022FF0120EDE70000000C014010B50446C4
:100AC000FFF70CFF7820FFF745FFFFF7CDFF002071
:100AD000FFF740FFFFF7C8FF2046FFF73BFFFFF798
:100AE000C3FFFFF719FF10BD70B504460D4605F1B1
:100AF000B001C8B2FFF7E2FF102141EA1410FFF77E
:100B0000DDFF04F00F00FFF7D9FF70BD2DE9F041C4
:100B100006460D46284602F0C3FC87B2002400BFFB
:100B20001CE0307804EB4401695C484068B9707897
:100B300004EB4401491C695C484030B9B17804EBCE
:100B40004400801C285C414009B1012000E00020E5
:100B500010B92046BDE8F081601CC4B2032097FBA9
:100B6000F0F0A042DDDC0020F4E710B50446FFF70A
:100B7000B5FE7820FFF7EEFEFFF776FF4020FFF787
:100B8000E9FEFFF771FF2046FFF7E4FEFFF76CFF79
:100B9000FFF7C2FE10BD10B50446012C03D1A720FB
:100BA000FFF78CFF02E0A620FFF788FF10BD10B50D
:100BB000044634B9A120FFF781FFC820FFF77EFF6C
:100BC00005E0A020FFF77AFFC020FFF777FF10BDF8
:100BD00010B504461CB9AF20FFF770FF02E0AE204D
:100BE000FFF76CFF10BD10B58120FFF767FFFF20F6
:100BF000FFF764FFA120FFF761FFC820FFF75EFF4A
:100C00008D20FFF75BFF1420FFF758FFAF20FFF7A1
:100C100055FF10BD70B50646002415E004F1B00183
:100C2000C8B2FFF74BFF0020FFF748FF1020FFF787
:100C300045FF002504E03046FFF797FF681CC5B26A
:100C4000802DF8DB601CC4B2082CE7DB70BD2DE9F9
:100C5000F04780460D4691461E46A9F12000C7B2D6
:100C6000B8F17F0F01DC072D02DD4FF000080025F1
:100C7000082E21D129464046FFF736FF002407E021
:100C80008F4901EB0711085DFFF76FFF601CC4B2CD
:100C9000082CF5DB681CC1B24046FFF725FF08248D
:100CA00007E0874901EB0711085DFFF75EFF601C55
:100CB000C4B2102CF5DB13E0062E11D129464046B4
:100CC000FFF712FF002409E007EB47017D4A02EB22
:100CD0004101085DFFF749FF601CC4B2062CF3DB3D
:100CE000BDE8F0872DE9F04105460F4614461E4643
:100CF00008E014F8012B334639462846FFF7A7FFD2
:100D0000A819C5B220780028F3D1BDE8F0812DE9FB
:100D1000F04788B00646884691461D46DDE910A793
:100D200000241C2101A802F0DAFB0A2D05D14A4655
:100D300065A101A802F0DAFA14E0102D05D14A46A7
:100D400062A101A802F0D2FA0CE0082D05D14A46B2
:100D50005FA101A802F0CAFA04E04A465AA101A81C
:100D600002F0C4FA01A802F09BFBC4B204E0202008
:100D700001A90855601CC4B25445F8DB00240BE0FF
:100D80002046611CCCB201A90A5C3B464146304674
:100D9000FFF75DFFF019C6B201A8005D0028EFD192
:100DA00008B0BDE8F0872DE9F04706460F469046AB
:100DB0009A467F2E01DC072F01DD00260027002543
:100DC00030E005EB450101EB08004249FFF79EFECC
:100DD0008146102101FB0561C8B23946FFF784FE48
:100DE000002407E03C4901EB4911085DFFF7BDFE17
:100DF000601CC4B2102CF5DB7A1CD1B2102202FBAD
:100E00000562D0B2FFF770FE102407E0324901EB13
:100E10004911085DFFF7A9FE601CC4B2202CF5DB68
:100E2000681CC5B2404602F03BFB0321B0FBF1F069
:100E3000A842C6D8BDE8F0872DE9F04706460F4620
:100E400090469946DDF820A0002534E039467A1C0A
:100E5000D7B23046FFF748FE06EBC51084B224E057
:100E6000BAF1050F1DD2DFE80AF0030D08121700D2
:100E70001A49085DFFF779FE14E01949085DFFF78C
:100E800074FE0FE01749085DFFF76FFE0AE0164990
:100E9000085DFFF76AFE05E01449085DFFF765FE8F
:100EA00000E000BF00BF601C84B208EBC510A04288
:100EB000D6DC681C85B24D45C8DBBDE8F087000074
:100EC000EA380008B0360008256400002558000004
:100ED000256F00001E000020DA3E00083A4000089E
:100EE0003A4800083A4400083A4C00083A500008D2
:100EF00008B503208DF8000000208DF801008DF862
:100F0000020001208DF80300684600F07CFB08BD5C
:100F1000F0B503460C461546642093FBF0F0C6B2CC
:100F2000642093FBF0F700FB1730C1B2132E02DDF3
:100F300001F16400C1B20846CF1701EB977701EBCE
:100F4000A707BAB2072092FBF0F700FB172082B286
:100F50005719601EDFF814C41CF80000384482B230
:100F6000CF1701EB9777BF10A1EB87071FB9032CB1
:100F700001DA501E82B2072092FBF0F700FB172027
:100F8000C0B2F0BD0146CA1701EB92729210A1EBFC
:100F9000820292B9642091FBF0F200FB121050B96A
:100FA0004FF4C87091FBF0F200FB121008B9012059
:100FB00070470020FCE70120FAE70020F8E770B551
:100FC00000260024002501F08DF90646E848B6FB0E
:100FD000F0F4E8480088A0423CD0E6490C8040F29A
:100FE000B27510E02846FFF7CDFF40B1B4F5B77FEA
:100FF00002D3A4F5B77404E0681C85B206E0A4F23D
:101000006D14681C85B2B4F5B67FEBD800BFDA4822
:101010008580002516E0D8498888FFF7B3FF30B1F6
:10102000012D04D11D2C01D31D3C09E00CE0D34857
:10103000405DA04203D8D148405D241A00E003E09F
:10104000681C85B21C2CE6D200BF681CCA49887196
:10105000601CC871C648B6FBF0F100FB11644FF488
:101060006160B4FBF0F0C44908704FF46160B4FBF8
:10107000F0F100FB11403C21B0FBF1F0BE4948709B
:101080004FF46160B4FBF0F100FB11403C21B0FB78
:10109000F1F201FB1200B84988700B46DA799979B0
:1010A0009888FFF735FFB4490872002070BD2DE91C
:1010B000F05F06460F4690469946DDE90AAB0024EC
:1010C00040F2B270864203DB40F63300864202DD16
:1010D0000120BDE8F09F40F2B2750AE02846FFF714
:1010E00051FF10B1A648044401E0A6480444681C1E
:1010F00085B2B542F2DB781EC7B2002510E09F48EA
:10110000405D40F2A321484304EBC0143046FFF792
:1011100039FF18B1012D01D195480444681C85B2EE
:10112000BD42ECDBA8F1010040F2A321484304EBEF
:10113000C014C9EB4910C0EB092004EB0014CAEB42
:101140000A1004EB80045C4401214FF0C05000F011
:10115000ECFD012001F055F9204601F0CCF801F03A
:10116000FDF80020B5E71CB5002401214FF0C05068
:1011700000F0DBFD012001F044F9042001F065F8E6
:1011800045F25001884240D001F02AF8012000F0D9
:101190002CFD04E0601CC4B20A2000F042F941209A
:1011A00000F08BFC08B9FA2CF4DBFA2C01DB0120EF
:1011B0001CBD4FF4807000F034FD012000F037FDBD
:1011C00001F0CCF801F0D3F80121084601F06AF8EB
:1011D00001F0C4F801F073F847F6FF7001F098F8D9
:1011E00001F0BCF837202A2111230E22CDE900108E
:1011F000012140F2DF70FFF75AFF01F069F845F274
:101200005001042001F015F807E001F0B0F80121C9
:10121000084601F047F801F0A1F8FFF769FEFFF773
:10122000CEFE0020C4E70EB5012001F0C5F810B3D2
:10123000FFF7C5FE08200221CDE900104E480278D4
:101240000A2300210846FFF762FD08200221CDE9AC
:101250000010494842780A2300211820FFF757FD63
:1012600008200221CDE90010434882780A2300219A
:101270003020FFF74CFD022001F09EF8A0B10220C3
:1012800001F0AAF8FFF79BFE3B4880783A4949787D
:10129000394A1278CDE9002102903748C379827922
:1012A000818839A002F016F8052001F095F801F0C8
:1012B00055F80EBD2DE9F05F06460F46904699465B
:1012C000DDE90AAB002440F2B270864203DB40F64F
:1012D0003300864202DD0120BDE8F09F40F2B27586
:1012E0000AE02846FFF74EFE10B12548044401E00D
:1012F00024480444681C85B2B542F2DB781EC7B2AC
:10130000002510E01D48405D40F2A321484304EB56
:10131000C0143046FFF736FE18B1012D01D1144834
:101320000444681C85B2BD42ECDBA8F1010040F228
:10133000A321484304EBC014C9EB4910C0EB0920BA
:1013400004EB0014CAEB0A1004EB80045C44012196
:101350004FF0C05000F0E9FC012001F052F82046A7
:1013600000F0E4FF00F0FAFF0020B5E73A5400086F
:101370008051010040000020A400002046540008D5
:101380000085E2018033E101416C61726D20546996
:101390006D653A25642D25642D25642025643A2544
:1013A000643A25640A00000010B56FF0040000F0F4
:1013B00074F92E4800682E49B0FBF1F02D490870F1
:1013C0000846007800EB4001C1EBC0104FF6FF71FA
:1013D00001EAC0002849088010BD0146254A12785C
:1013E0004A434FF0E0235A6100229A611A4612697B
:1013F00042F001021A6100BF4FF0E022106900F0D4
:1014000001021AB100F48032002AF5D04FF0E02238
:10141000126922F001024FF0E0231A6100229A6162
:1014200070470146144A12884A434FF0E0235A613C
:1014300000229A611A46126942F001021A6100BF45
:101440004FF0E022106900F001021AB100F480327E
:10145000002AF5D04FF0E022126922F001024FF08D
:10146000E0231A6100229A6170470000000000200A
:1014700000127A00420000204400002000BF7047A4
:1014800000BF4A4A128802F04002002AF9D0C2B2D4
:10149000464B1B1D1A80704710B586B004460121CB
:1014A00044F2040000F034FC4FF40070ADF8140076
:1014B00003208DF8160018208DF8170005A93C4868
:1014C00000F06AF94FF48060ADF8140004208DF844
:1014D000170005A9364800F05FF925208DF80000B7
:1014E00003208DF801008DF8020001208DF8030023
:1014F000684600F088F801940020ADF80800ADF8C7
:101500000A00ADF80C00ADF810000C20ADF80E008C
:1015100001A9264800F0A3FC012240F225512348EE
:1015200000F035FD0121214800F025FD06B010BD79
:1015300010B540F225511D4800F00EFE10B31B48B7
:1015400000F08AFDC4B21B48008800F40040C8B90E
:101550001848008800F4804060B10A2C03D00020B5
:101560001449088020E01348008840F400401149E5
:10157000088019E00D2C06D10E48008840F4804008
:101580000C49088010E00B480088C0F30D000A49A0
:101590000C5408480088401C06490880084600880A
:1015A000C72801DD0020088010BD00000038014080
:1015B000000801404C000020AE0000200948804790
:1015C00009480047FEE7FEE7FEE7FEE7FEE7FEE725
:1015D000FEE7FEE7FEE7FEE704480549054A064B3D
:1015E00070470000DF030008ED000008D80100206C
:1015F000D8070020D8030020D80300203149014338
:10160000314A1160704770B5002100230F22C47861
:1016100004B32D4C246804F4E064C4F5E064210AAA
:10162000C1F10403CA40447804FA03F184781440F9
:1016300021430901254C0678A155047804F01F05C3
:101640000124AC4005786D11AD0005F1E025C5F829
:10165000004109E0047804F01F050124AC401C4D52
:101660000678761145F8264070BD1A4A0A400243B2
:10167000154B1B1F1A60704739B1134A121D1268AF
:101680000243114B1B1D1A6006E00F4A121D12681F
:1016900082430D4B1B1D1A607047042808D14FF080
:1016A000E021096941F004014FF0E022116107E0F7
:1016B0004FF0E021096921F004014FF0E0221161AF
:1016C000704700000000FA050CED00E000E400E0C7
:1016D00080E100E080FFFF1F10B50446CC48844243
:1016E00008D10121042000F02DFB0021042000F08E
:1016F00029FB46E0C748844208D10121082000F0B8
:1017000021FB0021082000F01DFB3AE0C248844282
:1017100008D10121102000F015FB0021102000F05D
:1017200011FB2EE0BD48844208D10121202000F0A9
:1017300009FB0021202000F005FB22E0B84884428C
:1017400008D10121402000F0FDFA0021402000F0E6
:10175000F9FA16E0B348844208D10121802000F054
:10176000F1FA0021802000F0EDFA0AE0AE48844250
:1017700007D10121801500F0E5FA0021A01500F045
:10178000E1FA10BD10B50121084600F0DBFA002196
:10179000012000F0D7FA10BD2DE9F04102460025E6
:1017A0000026002000230024002791F803C00CF03D
:1017B0000F0591F803C00CF0100CBCF1000F03D022
:1017C00091F802C04CEA050591F800C0BCF1000F89
:1017D00031D0146800202BE04FF0010C0CFA00F31C
:1017E000B1F800C00CEA03069E4220D183004FF0FE
:1017F0000F0C0CFA03F7BC4305FA03FC4CEA040493
:1018000091F803C0BCF1280F06D14FF0010C0CFA7F
:1018100000FCC2F814C00AE091F803C0BCF1480F04
:1018200005D14FF0010C0CFA00FCC2F810C0401CAE
:101830000828D1D31460B1F800C0BCF1FF0F34DD2B
:10184000546800202EE000F1080C4FF0010808FA5F
:101850000CF3B1F800C00CEA03069E4221D18300CC
:101860004FF00F0C0CFA03F7BC4305FA03FC4CEAEB
:10187000040491F803C0BCF1280F05D100F1080C55
:1018800008FA0CF8C2F8148091F803C0BCF1480FB4
:1018900007D100F1080C4FF0010808FA0CF8C2F863
:1018A0001080401C0828CED35460BDE8F0814FF66C
:1018B000FF710180022181700421C17070470246CE
:1018C000002093680B400BB1012000E0002070471E
:1018D0000146886880B2704702460020D3680B40FA
:1018E0000BB1012000E0002070470146C86880B2BB
:1018F000704701617047416170470AB1016100E0C2
:1019000041617047C16070474FF480320A43826181
:101910008161826182698269704702460020434B7F
:1019200018684FF68073184040EA021008433F4B96
:10193000186070473E49C8617047F0B50A460023F9
:1019400000240021002500F00046B6F1004F02D12E
:10195000364EF16901E0354E7168C0F3034583B23C
:1019600000F44016B6F5401F08D121F070612F4EEB
:10197000766826F070662D4F7E6012E000F48016C7
:10198000B6F5801F06D1032606FA05F4A14341F0FF
:10199000706106E0460D360103FA06F6B14341F0E8
:1019A000706122B1460D360103FA06F6314300F0AC
:1019B0000046B6F1004F02D11C4EF16101E01B4E12
:1019C0007160F0BD30B500228B071C0F0F2303FAA6
:1019D00004F2164B08338C1053F824309343134C05
:1019E00008348D1044F8253023468C1053F82430E9
:1019F0008C07240F00FA04F423430C4C08348D1098
:101A000044F8253030BD0A49DC31086070470000D9
:101A100000080140000C014000100140001401408A
:101A200000180140001C014000200140000001405E
:101A300000002042DF48006840F00100DD490860F6
:101A400008464068DC490840DA49486008460068B2
:101A5000DA490840D74908600846006820F4802029
:101A600008600846406820F4FE0048604FF41F00FC
:101A700088607047CF49096821F48031CD4A1160F0
:101A80001146096821F480211160B0F5803F03D030
:101A9000B0F5802F0ED106E0C649096841F48031C7
:101AA000C44A116007E0C349096841F4A021C14A52
:101AB000116000E000BF00BF704710B50146002272
:101AC000002300204A11012A02D1BA4C236806E003
:101AD000022A02D1B74C236A01E0B64C636A01F0D6
:101AE0001F02012494401C400CB1012000E00020A2
:101AF00010BD38B5002000900024002500BF312023
:101B0000FFF7DBFF05460098401C00900098B0F5F9
:101B1000A06F01D0002DF2D03120FFF7CEFF08B129
:101B2000012400E00024204638BD01460020A14ADF
:101B3000106820F0F80040EAC10010607047A0492A
:101B400008607047024600209A4B586820F47C10C9
:101B500042EA01031843974B58607047984908665A
:101B6000704701460020934A506820F00300084364
:101B7000506070478F48406800F00C007047014685
:101B800000208C4A506820F0F000084350607047F5
:101B900001460020874A506820F4E0600843506006
:101BA000704701460020834A506820F4605040EAA4
:101BB000C1005060704729B17E4A527A02437D4B82
:101BC0005A7204E07B4A527A82437A4B5A727047C7
:101BD0007B49D8310860704701460020754A50683B
:101BE00020F440400843506070470021714A203281
:101BF0001170704A82F82010012802D004280AD1FE
:101C000004E001216B4A2032117005E00521694A88
:101C10002032117000E000BF00BF704769490860C2
:101C200070476449096A0143624A11627047654915
:101C300044390860704730B5002100220024002399
:101C40005C4D6D6805F00C0121B1042905D008290F
:101C500023D105E05C4D056022E05B4D05601FE08F
:101C6000544D6D6805F47012524D6D6805F4803462
:101C7000022505EB92421CB9544D554305600BE01B
:101C80004C4D6D6805F400351DB1504D5543056050
:101C900002E04D4D5543056002E04B4D056000BF2D
:101CA00000BF444D6D6805F0F0010909484D6B5CBB
:101CB0000568DD4045603F4D6D6805F4E061090A47
:101CC000434D6B5C4568DD4085603A4D6D6805F4B9
:101CD0006051C90A3E4D6B5C4568DD40C560354DBD
:101CE0006D6805F44041890B3A4D6B5CC568B5FBE6
:101CF000F3F5056130BD29B12E4A526902432D4BDF
:101D00005A6104E02B4A526982432A4B5A61704758
:101D100029B1284A92690243264B9A6104E0254A78
:101D200092698243234B9A61704729B1214AD26953
:101D30000243204BDA6104E01E4AD26982431D4B04
:101D4000DA61704729B11B4AD2680243194BDA6045
:101D500004E0184AD2688243164BDA60704729B112
:101D6000144A12690243134B1A6104E0114A1269C2
:101D70008243104B1A61704712494039086070471E
:101D80000F49C86470470B49C87170470948406AD9
:101D900040F0807007494862704701460020054ABC
:101DA00092680A400AB1012000E000207047014912
:101DB00088727047001002400000FFF8FFFFF6FE37
:101DC000000042428004424200127A0000093D00B5
:101DD0004E0000205E00002010B50446FB488442FF
:101DE00009D101218803FFF7ADFF00214FF48040A6
:101DF000FFF7A8FF32E0F648844209D101214804E8
:101E0000FFF7ADFF00214FF40030FFF7A8FF25E0FA
:101E1000F048844209D101218804FFF7A0FF002186
:101E20004FF48020FFF79BFF18E0EB48844209D174
:101E30000121C804FFF793FF00214FF40020FFF7B2
:101E40008EFF0BE0E548844208D101210805FFF729
:101E500086FF00214FF48010FFF781FF10BD2DE9B0
:101E6000F04786B005460E460024A24600BFA146B4
:101E70000027B08900B100BF2F462C8A4CF6FF70B6
:101E80000440F08804432C82AC894EF6F3100440E1
:101E9000B08831890843718908430443AC81AC8A16
:101EA0004FF6FF400440B0890443AC8201A8FFF71D
:101EB000C2FEC648874202D1DDF810A001E0DDF87D
:101EC0000CA0A88900F4004040B10AEBCA0000EB66
:101ED0000A1031684900B0FBF1F807E00AEBCA00CC
:101EE00000EB0A1031688900B0FBF1F86420B8FB00
:101EF000F0F004012009642101FB1089A88900F495
:101F0000004040B1322000EBC900B0FBF1F000F01E
:101F10000700044308E0322000EB09106421B0FB05
:101F2000F1F000F00F0004432C8106B0BDE8F0870B
:101F30004FF41651016000218180C18001810C2184
:101F4000418100218181704710B502460020108A2E
:101F50004FF2FF0318400B884C8823438C8823439F
:101F6000CC8823431843108210BD0021018041809A
:101F70008180C180704721B1828942F40052828100
:101F800004E082894DF6FF731A4082817047F0B5F4
:101F90000346002400260025002040F66A17B942B7
:101FA00000D100BF1846C1F3421401F01F060127FB
:101FB00007FA06F5012C01D10C3004E0022C01D106
:101FC000103000E014301AB107682F43076002E0B8
:101FD0000768AF430760F0BD1AB1838A0B43838261
:101FE00002E0838A8B4383827047028A4FF6F07344
:101FF0001A400282028A0A430282704782894FF2A3
:10200000FF731A40828182890A438281704721B11D
:10201000828942F00202828104E082894FF6FD73D8
:102020001A4082817047028A4FF6DF731A4002829B
:10203000028A0A430282704721B1028A42F4804236
:10204000028204E0028A4BF6FF731A400282704754
:10205000C1F308028280704701468888C0F30800F7
:102060007047818941F0010181817047028BD2B2B2
:102070000283028B42EA012202837047028B02F440
:102080007F420283028B0A430283704721B1828A16
:1020900042F02002828204E0828A4FF6DF731A4007
:1020A0008282704721B1828A42F01002828204E06B
:1020B000828A4FF6EF731A408282704721B1828A7A
:1020C00042F00802828204E0828A4FF6F7731A40D7
:1020D0008282704721B1828942F40042828103E00A
:1020E0008289C2F30E028281704721B1828A42F452
:1020F0000062828204E0828A4FF2FF731A40828279
:102100007047828A4FF6FB731A408282828A0A43A2
:102110008282704721B1828A42F00202828204E008
:10212000828A4FF6FD731A40828270470246002071
:10213000B1F5007F00D100BF13880B400BB1012027
:1021400000E00020704701F40072B2F5007F00D17A
:1021500000BFCA430280704770B5024600240023C6
:102160000025002040F66A16B14200D100BFC1F33D
:10217000421501F01F03012606FA03F3012D02D1D7
:102180009689334006E0022D02D1168A334001E0E1
:10219000968A33400C12012606FA04F4168834405D
:1021A00013B10CB1012000E0002070BD10B5002279
:1021B000002340F66A14A14200D100BF0A12012494
:1021C0009440A3B2DC43048010BD000000380140FD
:1021D0000044004000480040004C004000500040D7
:1021E00010B50120FFF7C8FD0020FFF7C5FD10BDA9
:1021F0002A49086070472949091F08607047274924
:1022000084310860704701460020254A10884FF647
:102210007F4210400843224A108070470146002048
:102220001F4A10884FF68072104008431C4A1080E5
:10223000704708B500220092194A2C3A0092009A81
:1022400002440092009A116008BD08B501460020C2
:10225000009013482C380090009808440090009893
:10226000008808BD0D489C300068C0B270470C481B
:102270000830008840F001000949083108807047A3
:102280000648A0300068C0B2704705480830008892
:1022900040F00200024908310880704704860D4270
:1022A0002C6C004029B1504A128802434E4B1A80D0
:1022B00004E04D4A128882434B4B1A8070474A48CB
:1022C000001D008840F010004749091D0880704734
:1022D0004548001D00884FF6EF7108404249091D2E
:1022E00008807047002140481C300188001F00888A
:1022F00041EA0040704700B50246FFF7E0FF100CCE
:10230000394918310880091D0A80FFF7E1FF00BD37
:1023100000B50246FFF7D3FFC2F30340324908314C
:102320000880091D0A80FFF7D3FF00BD00B50246F3
:10233000FFF7C5FF100C2C4920310880091D0A80C9
:10234000FFF7C6FF00BD00202749103109880907A3
:10235000080B2549143109880843704700BF2248FB
:10236000001D008800F020000028F8D070471E48AB
:10237000001D00884FF6F77108401B49091D0880B1
:1023800000BF1948001D008800F008000028F8D0A0
:10239000704701460020144A121D12880A400AB1F3
:1023A000012000E0002070470F49091D0988814382
:1023B0000D4A121D11807047014600200A4A121D65
:1023C00012880A40D0B2084A12880A4012B108B1F5
:1023D000012000E0002070470349091D098881435E
:1023E000014A121D118070470028004010B50121DC
:1023F0000807FFF7B4FC00214FF08050FFF7AFFC57
:1024000010BD2A4908627047284908617047014693
:102410000020274A106820F0E00008431060704751
:102420002249A0310860704710B502460020204BB9
:10243000186820F00300104318601E4B1B6843F01F
:1024400004031C4C2360012901D130BF00E020BFF0
:10245000184B1B6823F00403164C236010BD14486E
:10246000006840F00400124908600846006840F027
:10247000020008600F48006840F004000D49086041
:1024800000BF00BF30BF704701460020084A5268B5
:102490000A400AB1012000E00020704704490968A1
:1024A00041EA8001024A11607047000000000E42BC
:1024B0000070004010ED00E010B50446FE48844274
:1024C00008D10121C014FFF73DFC0021E014FFF703
:1024D00039FCC4E0B4F1804F08D101210846FFF770
:1024E0003EFC00210120FFF73AFCB8E0F3488442AB
:1024F00008D101210220FFF732FC00210220FFF762
:102500002EFCACE0EE48844208D101210420FFF704
:1025100026FC00210420FFF722FCA0E0E9488442C9
:1025200008D101210820FFF71AFC00210820FFF73D
:1025300016FC94E0E448844208D101211020FFF702
:102540000EFC00211020FFF70AFC88E0DF488442DF
:1025500008D101212020FFF702FC00212020FFF7F5
:10256000FEFB7CE0DA48844208D101214014FFF7E9
:10257000E9FB00216014FFF7E5FB70E0D5488442D9
:1025800009D10121C804FFF7DDFB00214FF4002031
:10259000FFF7D8FB63E0D048844209D10121080548
:1025A000FFF7D0FB00214FF48010FFF7CBFB56E084
:1025B000CA48844209D101214805FFF7C3FB002125
:1025C0004FF40010FFF7BEFB49E0C548844208D134
:1025D00001214020FFF7C3FB00214020FFF7BFFB94
:1025E0003DE0C048844208D101218020FFF7B7FBBD
:1025F00000218020FFF7B3FB31E0BB48844208D1C3
:1026000001218015FFF7ABFB0021A015FFF7A7FB09
:1026100025E0B648844209D101210804FFF792FB66
:1026200000214FF48030FFF78DFB18E0B048844262
:1026300009D101214804FFF785FB00214FF4003048
:10264000FFF780FB0BE0AB48844208D101218804EE
:10265000FFF778FB00214FF48020FFF773FB10BDDC
:1026600000220288944B98420ED0994B98420BD08E
:10267000B0F1804F08D0914B984205D0904B9842D2
:1026800002D0904B984204D14FF68F731A404B887A
:102690001A438D4B984207D08C4B984204D04FF68A
:1026A000FF431A40CB881A4302808B8883850B88AE
:1026B0000385814B98420BD0854B984208D08B4BB9
:1026C000984205D08A4B984202D08A4B984201D159
:1026D0000B7A038601238382704770B500240022A1
:1026E0000023058C4FF6FE7635400584028C8388E6
:1026F000048B4FF68F752C40B51E2C400D882C4353
:10270000751E2A400D892A434D882A436A4DA842E6
:102710000BD06F4DA84208D0744DA84205D0744D1F
:10272000A84202D0734DA84213D14FF6F7752A4044
:102730004D892A434FF6FB752A408D882A434FF670
:10274000FF652B404FF6FF552B408D892B43CD89DC
:102750002B4383800483CD888586028470BD70B549
:10276000002400220023058C4FF6EF7635400584C7
:10277000028C8388048B48F6FF752C404FF6FF458A
:102780002C400D884FF6FF7606EA05252C434FF6C0
:10279000DF752A400D8906EA05152A434D8806EAA9
:1027A00005152A43444DA84202D0494DA8421DD1E7
:1027B0004FF67F752A404D894FF6FF7606EA0515DC
:1027C0002A434FF6BF752A408D8806EA05152A432D
:1027D0004FF6FF352B404FF2FF752B408D8906EAEF
:1027E00085052B43CD8906EA85052B438380048329
:1027F000CD880587028470BD70B5002400220023B7
:10280000058C4FF6FF6635400584028C8388848BE7
:102810004FF68F752C404FF6FC752C400D882C43DD
:102820004FF6FF552A400D894FF6FF7606EA05253B
:102830002A434D8806EA05252A431F4DA84202D0A7
:10284000234DA8421DD14FF2FF752A404D894FF606
:10285000FF7606EA05252A434FF6FF352A408D8884
:1028600006EA05252A434EF6FF752B404DF6FF7507
:102870002B408D8906EA05152B43CD8906EA0515FF
:102880002B4383808483CD888587028470BD70B597
:10289000002200230024058C4EF6FF763540058487
:1028A000038C8488828B48F6FF752A404FF6FF45DB
:1028B0002A400D8820E00000002C01400004004068
:1028C00000080040000C00400010004000140040D0
:1028D00000340140004C01400050014000540140D0
:1028E00000180040001C0040002000400040014053
:1028F00000440140004801404FF6FF7606EA0525F6
:102900002A434DF6FF752B400D8906EA05352B430A
:102910004D8806EA05352B43FA4DA84202D0FA4D00
:10292000A84208D14BF6FF752C408D894FF6FF76F3
:1029300006EA85152C4384808283CD88A0F8405018
:10294000038470BD828B4FF2FF331A408283828BE7
:102950004FF6FF7303EA01231A4382837047F0B5F1
:102960000C461546002200210026078C4EF6FF7CFF
:1029700007EA0C070784828B018C4FF6FF7707EA82
:10298000043640F6FF473A404FF6FF7707EA05273F
:102990003A434FF6FF7707EA03373A43D94FB84235
:1029A0000ED0D94FB8420BD0B0F1804F08D0D74FDE
:1029B000B84205D0D64FB84202D0D64FB84206D161
:1029C0004DF6FF77394046F48057394305E047F626
:1029D000FF57394044F48057394382830184F0BD66
:1029E000828B4FF6F3731A408283828B0A43828371
:1029F0007047F0B50C461546002200210026078CD2
:102A00004FF6FF6C07EA0C070784828B018C4FF6A8
:102A1000FF7707EA04264FF60C773A404FF6FF7728
:102A200007EA03172F433A43B64FB8420ED0B64FCA
:102A3000B8420BD0B0F1804F08D0B44FB84205D0A7
:102A4000B34FB84202D0B34FB84206D14FF6FF574A
:102A5000394046F48077394305E04FF2FF5739405B
:102A600044F48077394382830184F0BD028B4FF2B6
:102A7000FF331A400283028B4FF6FF7303EA0123F0
:102A80001A4302837047F0B50C4615460022002118
:102A90000026078C4FF6EF7C07EA0C070784028BB1
:102AA000018C4FF6FF7707EA041640F6FF473A40DD
:102AB0004FF6FF7707EA03373A434FF6FF7707EA07
:102AC00005273A438F4FB8420ED08F4FB8420BD0F4
:102AD000B0F1804F08D08D4FB84205D08C4FB8422E
:102AE00002D08C4FB84206D14FF6DF77394046F01E
:102AF0001007394305E04FF65F77394044F010077F
:102B0000394302830184F0BD028B4FF6F3731A4000
:102B10000283028B0A4302837047F0B50C461546C8
:102B200000220021068C4FF6FE773E400684028B81
:102B3000018C4FF60C7632407E1C06EA03162E43BB
:102B40003243704EB0420ED06F4EB0420BD0B0F157
:102B5000804F08D06D4EB04205D06D4EB04202D0CD
:102B60006C4EB04206D14FF6FD76314044F001067E
:102B7000314305E04FF6F576314044F0010631432C
:102B800002830184F0BD70B505460C465D48854260
:102B90000ED05D4885420BD0B5F1804F08D05B4820
:102BA000854205D05A48854202D05A48854200D114
:102BB00000E000BF208850B92389A2886188284698
:102BC000FFF7ABFFE1882846FFF79EFF25E020884E
:102BD00004280AD12389A28861882846FFF753FF79
:102BE000E1882846FFF742FF17E0208808280AD12D
:102BF0002389A28861882846FFF7FBFEE1882846E2
:102C0000FFF7EEFE09E02389A28861882846FFF7D6
:102C1000A6FEE1882846FFF795FE70BD2DE9F0413C
:102C200005460C4600260127608808B9022600E008
:102C30000026A088012801D1022700E00127208872
:102C4000A0B92389A28861882846FFF766FFE1883A
:102C50002846FFF759FF23893A4631462846FFF7B1
:102C600012FFE1882846FFF701FF13E02389A288BD
:102C700061882846FFF707FFE1882846FFF7F6FE40
:102C800023893A4631462846FFF747FFE188284620
:102C9000FFF73AFFBDE8F0810A884B881A438B881A
:102CA0001A43CB881A430B891A434B891A438B89E1
:102CB0001A43A0F8442070474FF6FF71818000212D
:102CC0000180C180418001727047002101804180F4
:102CD0008180C180018141818181C1817047002152
:102CE00001804180012181800021C18001817047E4
:102CF0000021018041808180C180018141818181E9
:102D000070470000002C01400034014000040040E6
:102D100000080040000C004021B1028842F001028E
:102D2000028004E002884FF6FE731A40028070476A
:102D300031B1B0F8442042F40042A0F8442005E04C
:102D4000B0F84420C2F30E02A0F8442070471AB134
:102D500083890B43838102E083898B43838170479E
:102D60008182704741EA0203A0F8483070471AB1E7
:102D700083890B43838102E083898B43838170477E
:102D800001894FF6F8721140018170470A4600210F
:102D900001894FF68F73194011430181704730B597
:102DA00004460D4629462046FFF7F0FF208940F0F3
:102DB0000700208130BD2DE9F04104460D4616463E
:102DC0001F46602D06D13B46012231462046FFF7C3
:102DD0005AFE05E03B46012231462046FFF79DFEA4
:102DE00029462046FFF7D2FF208940F007002081C6
:102DF000BDE8F08130B50C4600210189C9B24FF61B
:102E0000FF7505EA0325154325432943018130BD9C
:102E10002DE9F04105460E461746984600244346E4
:102E20003A4631462846FFF7E5FF2C894FF6F87001
:102E3000044044F007044FF68F70044044F07004DF
:102E40002C81BDE8F081F0B504460D4616461F46BC
:102E50003B46324629462046FFF7CCFF208940F406
:102E600080402081F0BD0185828270470A460021A2
:102E700001884FF68F731940114301807047F0B5F8
:102E80000C4615461E460021002200230189028BB4
:102E9000038C4FF6F877394021434FF6FC473A4010
:102EA00040F201173A434FF6DD773B404FF6FF778C
:102EB00007EA06172F433B43018102830384F0BDD9
:102EC0000A460021018B4FF68F731940114301838D
:102ED00070470A460021018B48F6FF7319404FF6F0
:102EE000FF7303EA02231943018370470A46002156
:102EF000818B4FF68F7319401143818370470A46C7
:102F00000021818B48F6FF7319404FF6FF7303EAE7
:102F1000022319438183704721B1028842F0800265
:102F2000028004E002884FF67F731A4002807047E7
:102F300021B1828842F00402828004E082884FF648
:102F4000FB731A408280704721B1828842F00802E8
:102F5000828004E082884FF6F7731A4082807047BF
:102F600021B1828842F00102828004E082884FF61B
:102F7000FE731A40828070470A460021018B4FF68B
:102F8000F77319401143018370470A460021018BF2
:102F90004FF2FF7319404FF6FF7303EA0223194300
:102FA000018370470A460021818B4FF6F773194061
:102FB0001143818370470A460021818B4FF2FF73D2
:102FC00019404FF6FF7303EA0223194381837047C8
:102FD0000A460021018B4FF6FB7319401143018310
:102FE00070470A460021018B4FF6FF3319404FF618
:102FF000FF7303EA02231943018370470A46002145
:10300000818B4FF6FB7319401143818370470A4649
:103010000021818B4FF6FF3319404FF6FF7303EA0F
:1030200002231943818370470A460021018B4FF622
:103030007F7319401143018370470A460021018BB9
:10304000C1F30E014FF6FF7303EA02231943018314
:1030500070470A460021818B4FF67F731940114358
:10306000818370470A460021818BC1F30E014FF620
:10307000FF7303EA02231943818370470A46002144
:10308000018C4FF6FD7319401143018470470A46C5
:103090000021018C4FF6F7731940114301847047EA
:1030A0000A460021018C4FF6DF7319404FF6FF737B
:1030B00003EA02131943018470470A460021018C78
:1030C0004FF67F7319404FF6FF7303EA021319435B
:1030D000018470470A460021018C4FF6FF531940C6
:1030E0004FF6FF7303EA02231943018470470A462F
:1030F0000021018C4FF2FF7319404FF6FF7303EA72
:1031000002231943018470470A460021018C4DF6C1
:10311000FF7319404FF6FF7303EA0233194301842A
:10312000704730B5002301248C40A3B2048C9C432B
:103130000484048C02FA01F5ADB22C43048430BD42
:1031400030B5002304248C40A3B2048C9C43048437
:10315000048C02FA01F5ADB22C43048430BD70B585
:103160000346002000241846183001258D40ACB2DB
:103170001D8CA5431D8409B1082909D100EB61000C
:10318000056825F0700505600568154305600EE0CB
:103190000D1FC5F34E052844056825F4E04505607C
:1031A00005684FF6FF7606EA02263543056070BDD6
:1031B00021B1028842F00202028004E002884FF648
:1031C000FD731A400280704721B1028842F0040268
:1031D000028004E002884FF6FB731A4002807047B9
:1031E00021B1828842F08002828004E082884FF61A
:1031F0007F731A408280704702884FF6F7731A4037
:10320000028002880A430280704782884FF68F73DB
:103210001A40828082880A438280704702894FF672
:10322000F8731A40028102890A43028170470289B9
:103230004FF67F731A40028102890A430281704768
:103240008184704781857047818670470187704708
:1032500081877047A0F84010704702884FF6FF43FF
:103260001A40028002880A43028070470146888E15
:1032700070470146088F70470146888F70470146A6
:10328000B1F8400070470146888C70470146088DB0
:10329000704702460020138A0B400BB1012000E06A
:1032A00000207047CA430282704730B502460020B2
:1032B00000230024158A05EA0103958905EA010423
:1032C00013B10CB1012000E0002030BDCA430282DE
:1032D000704770470FB4044910B503AA029800F074
:1032E000A1F910BC5DF814FB480000200FB41CB518
:1032F000074B06AA7B4469460090059800F079F9CF
:103300000020694600F088F91CBC5DF814FB000041
:10331000210300002DE9F0410E4604460020206202
:103320002046E168884730B3252805D0D4E901213B
:103330009047206A401CF2E7E16820460027884752
:10334000050018D0A5F14100192802D820354FF406
:1033500000673246294620462760FCF701FF40B14E
:10336000012804D0F61D26F007060836D8E7361DDA
:10337000D6E72846DAE7206ABDE8F0812DE9F0417A
:103380000646002410687529314616A510D0AFF303
:103390000080002802DA404213A507E031688A075E
:1033A00001D512A502E0490704D511A5012401E0C9
:1033B000AFF3008000210A2206F1240709E0B0FBE8
:1033C000F2FCB0FBF2F302FB1C00303078541846DC
:1033D000491C0028F3D123462A463046BDE8F04177
:1033E00000F0A8B8000000002D0000002B00000035
:1033F0002000000070B5044621461068AFF300803D
:10340000002104F1240505E000F007023032C00875
:103410006A54491C0028F7D12068002308A2050738
:1034200008D500F02000084304D0E069012305A27C
:10343000401EE0612046BDE8704000F07BB800000F
:10344000000000003000000070B504460D46214623
:103450001068AFF300802188090502D50F4A7A442D
:1034600002E00E4A7A440E32002104F1240305E002
:1034700000F00F060009965D5E54491C0028F7D144
:1034800020780023000704D5702D02D009B1022353
:1034900011322046BDE8704000F04CB8F01F00002B
:1034A00010B5431C02E010F8011B71B18107FAD17D
:1034B0004FF0013202C88C1A8C4314EAC211F9D0C1
:1034C000C01A0A0603D0C01E10BDC01A10BD0A04DF
:1034D00001D0801E10BD0902FCD0401E10BD4FF06F
:1034E000000200B5134694469646203922BFA0E854
:1034F0000C50A0E80C50B1F12001BFF4F7AF090760
:1035000028BFA0E80C5048BF0CC05DF804EB890050
:1035100028BF40F8042B08BF704748BF20F8022B93
:1035200011F0804F18BF00F8012B704770477047AB
:10353000704770472DE9F0470D469946924604467C
:1035400000F124080168880604D5E06921F0100123
:10355000216000E00120A84201DD471B00E00027B8
:10356000A1697A1902EB0900081AA0612078C00647
:1035700002D42046AFF30080002608E0D4E9012100
:103580001AF806009047206A401C761C20624E45BF
:10359000F4DB2078C0060AD52046AFF3008006E0B1
:1035A000D4E9012130209047206A401C2062381E57
:1035B000A7F10107F4DC07E0D4E9012118F80500C0
:1035C0009047206A401C2062281EA5F10105F3DC0B
:1035D0002046AFF300802078000602D50220BDE827
:1035E000F0870120FBE7000001694A1C02610878AE
:1035F000704700B58FB0CDE9013100210591054933
:103600007944CDE9031011466846FFF783FE0FB0F9
:1036100000BD0000E5FFFFFF0A6802F8010B0A6029
:1036200070470000074B70B50D467B44FFF7E1FF84
:103630000446284600F008F810B14FF0FF3070BD86
:10364000204670BD53DEFFFF007B00F08000704716
:10365000754600F029F8AE4605006946534620F04D
:103660000700854618B020B5FDF7B6FFBDE820403D
:103670004FF000064FF000074FF000084FF0000B2E
:1036800021F00701AC46ACE8C009ACE8C009ACE8E1
:10369000C009ACE8C0098D4670470446AFF300800E
:1036A0002046FCF775FD00000048704778010020B7
:1036B00000000000000000004C4000000002020278
:1036C0000000207C28283E20006C4A7424000C5204
:1036D0003C7C5270304C7A6C50400002000000007C
:1036E0000000007C820000423C00000000183810FE
:1036F000180000001018100000C0000000000808AA
:1037000008080808004000000000004030080600DB
:10371000007C42427C000000447C00000064625255
:103720004C000064424A7C000010287C2000006CA1
:103730004C4C7000007C4A4A74000004641C040075
:10374000007C4A527C00005C52523C000000484819
:1037500000000000C80000000018282442000018E3
:1037600018181800004224281800000462520C00A7
:1037700018647A566C1840301C1C7000007C54543D
:103780005C20186442424224007C44442418007C9B
:1037900054544400007C14141C0438444242640015
:1037A000007C10107C0000007C440000808080FCC5
:1037B0000400007C08344000007C40404000704C15
:1037C00070107C00007C08103C00186442424438B1
:1037D000007C14140C0438446242C438007C141475
:1037E0006C00004C4A52740004047C040404007C05
:1037F00040407C00000C30300C00003C143C1C04A9
:103800000044283844000004780804000064544C44
:1038100044000000FE828000000608304000008066
:1038200082FE000000010101010080808080808014
:10383000000101000000006058587040007E4848B8
:103840007000007048484000007048487E4000709A
:103850006868500000087C0C0C0000F0E8E8D8080C
:10386000007E080870000008784000000080808812
:103870007A00007E1038480000007E400000784842
:103880004870487008780808700000704848700058
:1038900008F84848700000704848F0000848700870
:1038A000080000505868680000087C484800087804
:1038B0004040784008182020180008382838380878
:1038C0000048383848000098A06018080048685838
:1038D00048000000007E8000000000FF0000008023
:1038E0007E00000000010102020000000000000054
:1038F00000000000000000000000000000F80000D0
:103900000000000000330000000000100C02100C4A
:10391000020000000000000000000040C07840C02D
:10392000780000043F04043F040000708888FC080D
:10393000300000182020FF211E00F008F0806018E1
:10394000000000310C031E211E0000F008887000EA
:1039500000001E21232C1927211000120E00000048
:1039600000000000000000000000000000E018045B
:103970000200000000071820400000020418E000C8
:1039800000000040201807000000404080F0804008
:1039900040000202010F0102020000000000E000EE
:1039A0000000000101010F01010100000000000002
:1039B0000000009070000000000000000000000007
:1039C00000000001010101010100000000000000F1
:1039D0000000003030000000000000000000C0388F
:1039E0000400006018070000000000E01008081044
:1039F000E000000F102020100F0000001010F80051
:103A00000000000020203F20200000700808080867
:103A1000F0000030282422213000003008080888F7
:103A200070000018202121221C000000804030F886
:103A3000000000060524243F242400F88888880814
:103A400008000019202020110E0000E01088889046
:103A50000000000F112020201F00001808088868AF
:103A600018000000003E010000000070880808886F
:103A70007000001C222121221C0000F00808081000
:103A8000E0000001122222110F00000000C0C0005F
:103A90000000000000303000000000000080000046
:103AA0000000000000E00000000000008040201046
:103AB000080000010204081020000040404040407F
:103AC00040000002020202020200000810204080B2
:103AD0000000002010080402010000704808088857
:103AE00070000000003037000000C030C828E81027
:103AF000E000071827282F2817000000C038E00032
:103B00000000203C23020227382008F888888870AB
:103B10000000203F202020110E00C03008080808B7
:103B20003800071820202010080008F8080808109E
:103B3000E000203F202020100F0008F88888E808C7
:103B40001000203F20202320180008F88888E8086B
:103B50001000203F200003000000C0300808083893
:103B6000000007182020221E020008F808000008A4
:103B7000F808203F210101213F20000808F808082B
:103B800000000020203F2020000000000808F80866
:103B90000800C08080807F00000008F888C02818D6
:103BA0000800203F20012638200008F80800000007
:103BB0000000203F20202020300008F8F800F8F80E
:103BC0000800203F013E013F200008F830C00008F7
:103BD000F808203F200007183F00E01008080810F0
:103BE000E0000F10202020100F0008F80808080837
:103BF000F000203F210101010000E010080808103A
:103C0000E0000F10282830504F0008F88888888876
:103C10007000203F2000030C302000708808080846
:103C200038000038202121221C00180808F8080854
:103C300018000000203F2000000008F808000008DD
:103C4000F808001F202020201F000878880000C8E6
:103C50003808000007380E01000008F800F800F8E6
:103C6000080000033E013E030000081868808068D9
:103C7000180820302C03032C30200838C800C8381E
:103C800008000000203F2000000010080808C83885
:103C900008002038262120201800000000FE020223
:103CA00002000000007F40404000000438C00000D7
:103CB0000000000000010638C00000020202FE0001
:103CC0000000004040407F000000000004020204A9
:103CD00000000000000000000000000000000000E4
:103CE00000008080808080808080000202040000CC
:103CF0000000000000000000000000008080800044
:103D0000000000192424123F200010F000808000E1
:103D10000000003F112020110E0000000080808074
:103D20000000000E112020201100000080808090F3
:103D3000F000001F202020103F20000080808080A5
:103D40000000001F242424241700008080E09090AD
:103D500020000020203F2020000000008080808084
:103D60008000006B94949493600010F00080808039
:103D70000000203F210000203F2000809898000094
:103D800000000020203F20200000000000809898C4
:103D9000000000C08080807F000010F00000808064
:103DA0008000203F240629302000001010F8000079
:103DB00000000020203F2020000080808080808044
:103DC0008000203F20003F20003F808000808080D6
:103DD0000000203F210000203F20000080808080E4
:103DE0000000001F202020201F0080800080800015
:103DF000000080FF912020110E0000000080800054
:103E00008000000E11202091FF8080808000808043
:103E1000800020203F212000010000008080808061
:103E200080000033242424241900008080E0808056
:103E300000000000001F2020100080800000008093
:103E40008000001F202020103F2080808000808084
:103E5000800000030C300C03000080800080800094
:103E60008080010E300C07380601008080800080C1
:103E700080000020310E2E312000808080000080E4
:103E80008080008186781806010000808080808014
:103E900080000021302C222130000000000000FCB6
:103EA000020200000000013E404000000000FF0050
:103EB000000000000000FF0000000202FC00000003
:103EC000000040403E010000000000020102020428
:103ED000020000000000000000000000FE021222AC
:103EE000C202C23202FE0000000080601F002010EB
:103EF0000C030C30000F3040F8001010F01F10F0D1
:103F00000404FF242424FF04040040221508166141
:103F10004424150DFF0D152444000000F8888888FE
:103F200088FF88888888F800000000001F080808BB
:103F3000087F888888889F80F000808282828282C1
:103F400082E2A2928A868280800000000000004007
:103F5000807F00000000000000001060028C000064
:103F6000FE9292929292FE00000004047E01407E36
:103F700042427E427E42427E40000000FC242424D5
:103F8000FC252624FC242424040040308F80844C0B
:103F900055252525554C808080001060028C00FE40
:103FA000929292929292FE00000004047E01444894
:103FB000507F40407F50484440000000FC242424AF
:103FC000FC252624FC242424040040308F80844CCB
:103FD00055252525554C8080800000000C12120CC0
:103FE00000000000000000000000000000000000D1
:103FF00000000000000000000000000000FE22227F
:10400000222222222222FE0000008040300F0202E3
:104010000202020242827F000000000000FE828253
:104020008282828282FE00000000000000FF404089
:104030004040404040FF0000000000000000000041
:1040400000000000000000000000000000808080F0
:1040500080000000000000000000000000000000E0
:104060000000000000000000000000000000000050
:104070000000000000000000000000000000000040
:104080000000000000000000000000000000000030
:104090000000000000000000000000000000000020
:1040A0000000000000000000000000000000000010
:1040B00000000000000000000000000000C0C0E0A0
:1040C000E060606060E0E0C0C0800000070F0F0F9C
:1040D0000F070000000000000000000000000000CA
:1040E00000000000000000000000000000000000D0
:1040F00000000000000000000000000000000000C0
:1041000000000000000000000000000000000000AF
:10411000000000000000000000000000000000009F
:10412000000000000000000000000000000000008F
:1041300000000000000000000000F8FEFF07010082
:1041400000C0C0400000000103DFFFFC00000000D1
:104150000000000000F0F0F0F0F0F0F0F0F0F0F00F
:10416000F0F0F0F0F0F0F0F0E0000000000080F07F
:10417000F0F080F0F0F0C0C0F0F0F0C0C0C0C0C0FF
:10418000F0F0F0C0C000000000808080808080805F
:1041900080F0F0F0F08080808080808080000000DF
:1041A000000000000070707070707070707070703F
:1041B0007070F0F0F0F0F07000000003070F1CF8D2
:1041C000FE3F33303038381C1E0F0701000000005E
:1041D0000000000000FFFFFFFF003EFEFEFCC0C02D
:1041E000FCFEFE3E00FFFFFFFF000000000003FF9B
:1041F000FFFF03FFFFFF0301FFFFFFEDEDEDEDED1F
:10420000FFFFFF010100000000FFFFFFFF7373735A
:1042100073FFFFFFFF73737373FFFFFFFF00000067
:10422000000000C0C0C0C0C0C0C0C0C0C0F8F8FC22
:10423000FEDFDFCFC7C3C0C0C0000000000000FF2A
:10424000FFC00000000000000000000000000000AF
:104250000000000080FFFFFFFFE0E0F17F7F3F3FB5
:104260007F7FF1E0C0FFFFFFFF8000000000009FA4
:10427000FFFFFCFFBF078ECEFEFE7EFFFFFFFF7E2F
:10428000FEFEEE8E0E000000001F1F1F1F1C1C1CD8
:104290001CFFFFFFFF9C1C1C1C1F1F1FEFE0E0000A
:1042A00000000001010101010101010181FFFFFF87
:1042B000FF010101010101010100000000000000F7
:1042C00007070000000000000000000000000000E0
:1042D00000000000070703010001010000000000CA
:1042E00000000001010001030707000000000707AC
:1042F0000301010307070303010000070707070085
:1043000000010303030000000000000000000000A3
:10431000000103070707070707070707070303004D
:104320000000000000000000000707070707070360
:10433000010000000000000000000000000000007C
:10434000000000000000000000000000000000006D
:10435000000000000000000000000000000000005D
:10436000000000000000000000000000000000004D
:10437000000000000000000000000000000000003D
:10438000000000000000000000000000000000002D
:10439000000000000000000000000000000000001D
:1043A000000000000000000000000000000000000D
:1043B00000000000000000000000000000000000FD
:1043C00000000000000000000000000000000000ED
:1043D00000000000000000000000000000000000DD
:1043E00000000000000000000000000000000000CD
:1043F00000000000000000000000000000000000BD
:1044000000000000000000000000000000000000AC
:10441000000000000000000000000000000000009C
:10442000000000000000000000000000000000008C
:10443000000000000000000000000000000000007C
:10444000000000000000000000000000000000006C
:10445000000000000000000000000000000000005C
:1044600000000000000000000080C0E0F0F8F8F854
:10447000F0E0C0800000000000000000000000002C
:10448000000000000000000000000000000000002C
:10449000000000000000000000000000000000001C
:1044A000000000000000000000000000000000000C
:1044B00000000000000000000000000000000000FC
:1044C00000000000000000000000000000000000EC
:1044D00000000000000000000000000000000000DC
:1044E0000080C0E0F0F8FC7E3F1F0F0703010001D1
:1044F00003070F1F3F7EFCF8F0E0C08000000000C3
:1045000000000000000000000000000000000000AB
:10451000000000000000000000000000000000009B
:10452000000000000000000000000000000000008B
:10453000000000000000000000000000000000007B
:10454000000000000000000000000000000000006B
:1045500000000000000000000000000000183C3EC9
:104560003F3F3F3F3D3DFCFCFCF8000000000000E9
:10457000000000F8FCFCFC3D3F3F3F3F3F3E3C104D
:10458000000000000000000000000000000000002B
:10459000000000000000000000000000000000001B
:1045A000000000000000000000000000000000000B
:1045B00000000000000000000000000000000000FB
:1045C00000000000000000000000000000000000EB
:1045D00000000000000000000000000000000000DB
:1045E000000000000000FFFFFF7F0000000000004F
:1045F000000000FFFFFFFF000000000000000000BF
:1046000000000000000000000000000000000000AA
:10461000000000000000000000000000000000009A
:10462000000000000000000000000000000000008A
:10463000000000000000000000000000000000007A
:10464000000000000000000000000000000000006A
:10465000000000000000000000000000000000005A
:10466000000000000000000000000000000000004A
:10467000000000FFFFFFFF0000000000000000003E
:10468000FEFFFFFF0000000000000000000000002F
:10469000000000000000000000000000000000001A
:1046A000000000000000000000000000000000000A
:1046B00000000000000000000000000000000000FA
:1046C00000000000000000000000000000000000EA
:1046D00000000000000000000000000000000000DA
:1046E00000000000000000000000183C7CFCFCFC06
:1046F000FCFCBC3F3F3F1F0000000000000000002A
:104700001F3F3F3FBCFCFCFCFCFC7C3C1800000055
:104710000000000000000000000000000000000099
:104720000000000000000000000000000000000089
:104730000000000000000000000000000000000079
:104740000000000000000000000000000000000069
:104750000000000000000000000000000000000059
:104760000000000000000000000000000000010345
:10477000070F1F3F7EFCF8F0E0C0800080C0E0F033
:10478000F8FC7E3F1F0F070301000000000000003F
:104790000000000000000000000000000000000019
:1047A0000000000000000000000000000000000009
:1047B00000000000000000000000000000000000F9
:1047C00000000000000000000000000000000000E9
:1047D00000000000000000000000000000000000D9
:1047E00000000000000000000000000000000000C9
:1047F0000000000000000103070F1F1F1F0F070329
:1048000001000000000000000000000000000000A7
:104810000000000000000000000000000000000098
:104820000000000000000000000000000000000088
:104830000000000000000000000000000000000078
:104840000000000000000000000000000000000068
:104850000000000000000000000000000000000058
:104860000000000000000000000000000000000048
:104870000000000000000080800000000000000038
:104880000000000000000000000000000000000028
:104890000000000000000000000000000000000018
:1048A0000000000000000000000000000000000008
:1048B00000000000000000000000000000000000F8
:1048C00000000000000000000000000000000000E8
:1048D00000000000000000000000000000000000D8
:1048E0000000000000000040E0E0C0800000000088
:1048F000008080C0C0C0FFFFFFFFC0C0C08080003C
:104900000000000080C0E0E0400000000000000067
:104910000000000000000000000000000000000097
:104920000000000000000000000000000000000087
:104930000000000000000000000000000000000077
:104940000000000000000000000000000000000067
:104950000000000000000000000000000000000057
:1049600000000000000000000081E3FFFF7E3E1F0A
:104970008FC7C7E3E3F1F101010101030307070F4B
:104980001F3E7EFFF7E381000000000000000000F2
:104990000000000000000000000000000000000017
:1049A0000000000000000000000000000000000007
:1049B00000000000000000000000000000000000F7
:1049C00000000000000000000000000000000000E7
:1049D00000000000000000000000000000000000D7
:1049E0000020707070707070FCFFFFFF0100F8FE17
:1049F000FFFFFFFFFFFFFF000000000000000000BE
:104A000000000001FFFFFFFC7070707070702000EC
:104A10000000000000000000000000000000000096
:104A20000000000000000000000000000000000086
:104A30000000000000000000000000000000000076
:104A40000000000000000000000000000000000066
:104A50000000000000000000000000000000000056
:104A60000000000000000000010F3FFFFCF0C087C5
:104A70000F1F3F3F7F7F7F0000000000000000000D
:104A800080C0F0FCFF3F0F010000000000000000AC
:104A90000000000000000000000000000000000016
:104AA0000000000000000000000000000000000006
:104AB00000000000000000000000000000000000F6
:104AC00000000000000000000000000000000000E6
:104AD00000000000000000000000000000000000D6
:104AE0000000000000000010383C1E0F0703030701
:104AF000070F0E1E1C1CFCFCFCFC1C1C1E0E0F07D2
:104B0000070303070F1E3C381000000000000000E0
:104B10000000000000000000000000000000000095
:104B20000000000000000000000000000000000085
:104B30000000000000000000000000000000000075
:104B40000000000000000000000000000000000065
:104B50000000000000000000000000000000000055
:104B60000000000000000000000000000000000045
:104B7000000000000000070F0F0700000000000009
:104B80000000000000000000000000000000000025
:104B90000000000000000000000000000000000015
:104BA0000000000000000000000000000000000005
:104BB00000000000000000000000000000000000F5
:104BC00000000000000000000000000000000000E5
:104BD00000000000000000000000000000000000D5
:104BE00000000000000000000000000000000000C5
:104BF00000000000000000000000000000000000B5
:104C000000000000000000000000000000000000A4
:104C10000000000000000000000000000000000094
:104C20000000000000000000000000000000000084
:104C300000000000000000000000FFFFFFFFFFFF7A
:104C4000FFFFFFFFFFFFFFFFFFFFFFFFFFFFFFFF74
:104C5000FFFFFFFFFFFFFFFFFFFFFFFFFFFFFFFF64
:104C6000FFFFFFFFFFFFFFFFFFFFFFFFFFFFFFFF54
:104C7000FFFFFFFFFFFFFFFFFFFF0000000000003E
:104C80000000000000000000000000000000000024
:104C90000000000000000000000000000000000014
:104CA0000000000000000000000000000000000004
:104CB00000000000000000000000FFFFFFFFFFFFFA
:104CC000FFFFFFFFFFFFFFFFFFFFFFFFFFFFFFFFF4
:104CD000FFFFFFFFFFFFFFFFFFFFFFFFFFFFFFFFE4
:104CE000FFFFFFFFFFFFFFFFFFFFFFFFFFFFFFFFD4
:104CF000FFFFFFFFFFFFFFFFFFFF000000000000BE
:104D000000000000000000000000000000000000A3
:104D10000000000000000000000000000000000093
:104D20000000000000000000000000000000000083
:104D300000000000000000000000FFFFFFFFFFFF79
:104D4000FFFFFFFFFFFFFFFFFFFFFFFFFFFFFFFF73
:104D5000FFFFFFFFFFFFFFFFFFFFFF7F7F3F1F1FE3
:104D60000F07030301FFFFFFFFFFFFFFFFFFFFFF31
:104D7000FFFFFFFFFFFFFFFFFFFF0000000000003D
:104D80000000000000000000000000000000000023
:104D900000FEFCFCF8F0F0E0C0C080000000000065
:104DA0000000000000000000000000000000000003
:104DB00000000000000000000000FFFFFFFFFFFFF9
:104DC000FFFFFFFFFFFFFFFFFFFFFFFFFFFFFFFFF3
:104DD0007F3F3F1F0F0F070301010000000000008D
:104DE00000000000000101010101010101010101B8
:104DF00001010101010101010101FEFEFEFEFEFEB5
:104E0000FEFEFEFEFEFEFEFEFEFEFEFEFEFEFEFEC2
:104E1000FEFFFFFFFFFFFFFFFFFFFFFFFFFEFCFCAA
:104E2000F8F0F0E0C0C080000000000000000000CA
:104E300000000000000000000000FFFFFFFFFFFF78
:104E4000FFFFFFFFFFFFFFFFFFFFFFFFFFFFFEFC76
:104E5000F8F0F0E0C0C0800000000000000000009A
:104E60000000000000000000000000000000000042
:104E700000000000000000000000FFFFFFFFFFFF38
:104E8000FFFFFFFFFFFFFFFFFFFFFFFFFFFFFFFF32
:104E9000FFFFFFFFFFFFFFFFFFFFFFFFFFFFFFFF22
:104EA0007F3F3F1F0F0F07030300000000000000BB
:104EB00000000000000000000000FFFFFFFFFFFFF8
:104EC000FFFFFFFFFFFFFFFFFFFFFFFFFFFFFFFFF2
:104ED000FFFFFFFFFFFFFFFFFEFEFCF8F8F0E0E042
:104EE000C080000000FEFEFEFEFEFEFEFEFEFEFE98
:104EF000FEFEFEFEFEFEFEFEFEFE010101010101C0
:104F00000101010101010101010101010101010191
:104F100001FFFFFF7F3F3F1F0F0F0703030100004B
:104F20000000000000000000000000000000000081
:104F300000000000000000000000FFFFFFFFFFFF77
:104F4000FFFFFFFFFFFFFFFFFFFFFFFFFFFFFFFF71
:104F5000FFFFFFFFFFFFFFFFFFFFFFFFFFFFFFFF61
:104F6000FFFFFFFFFEFFFFFFFFFFFFFFFFFFFFFF52
:104F7000FFFFFFFFFFFFFFFFFFFF0000000000003B
:104F80000000000000000000000000000000000021
:104F90000001000000000000000000000000000010
:104FA0000000000000000000000000000000000001
:104FB00000000000000000000000FFFFFFFFFFFFF7
:104FC000FFFFFFFFFFFFFFFFFFFFFFFFFFFFFFFFF1
:104FD000FFFFFFFFFFFFFFFFFFFFFFFFFFFFFFFFE1
:104FE000FFFFFFFFFFFFFFFFFFFFFFFFFFFFFFFFD1
:104FF000FFFFFFFFFFFFFFFFFFFF000000000000BB
:1050000000000000000000000000000000000000A0
:105010000000000000000000000000000000000090
:105020000000000000000000000000000000000080
:105030000000000000000000000000000000000070
:105040000000000000000000000000000000000060
:105050000000000000000000000000000000000050
:105060000000000000000000000000000000808040
:105070000040404040404040404040404000808030
:105080000000000000000000000000000000000020
:105090000000000000000000000000000000000010
:1050A0000000000000000000000000000000000000
:1050B00000000000000000000000000000000000F0
:1050C00000000000000000000000000000000000E0
:1050D00000000000000000000000000000000000D0
:1050E00000000080402010884424121009080404A5
:1050F000020282C2C0C0C1C1C0C0C2820202040496
:10510000080910122444881020408000000000008C
:10511000000000000000000000000000000000008F
:10512000000000000000000000000000000000007F
:10513000000000000000000000000000000000006F
:10514000000000000000000000000000000000005F
:10515000000000000000000000000000000000C08F
:105160001004C3300C020100000000000000000029
:1051700000FFFFFFFF03030303FFFFFFFF0000002B
:105180000000000000000001020C30C30410C00049
:10519000000000000000000000000000000000000F
:1051A00000000000000000000000000000000000FF
:1051B00000000000000000000000000000000000EF
:1051C00000000000000000000000000000000000DF
:1051D0000000000000000000000000000000FE00D1
:1051E000C00F00000000F8FCFEFE1E1E1E1E1E1E4C
:1051F0001E1F1F0F0F000000000F0F1F1F1E1E1E7F
:105200001E1E1E1EFEFEFCF8000000000FC000FE69
:10521000000000000000000000000000000000008E
:10522000000000000000000000000000000000007E
:10523000000000000000000000000000000000006E
:10524000000000000000000000000000000000005E
:1052500000000000000000000000000000001FC06F
:10526000003CC0000000070F1F1F1E1E1E1E1E1E3A
:105270001EFEFEFEFC00000000FCFEFEFE1E1E1ECA
:105280001E1E1E1E1F1F0F07000000C03C00C01F77
:10529000000000000000000000000000000000000E
:1052A00000000000000000000000000000000000FE
:1052B00000000000000000000000000000000000EE
:1052C00000000000000000000000000000000000DE
:1052D00000000000000000000000000000000000CE
:1052E000020830438C1020408000000000000000C5
:1052F000003F7FFFFFF0F0F0F0FFFF7F3F00000076
:105300000000000000804020108C433008020000A4
:10531000000000000000000000000000000000008D
:10532000000000000000000000000000000000007D
:10533000000000000000000000000000000000006D
:10534000000000000000000000000000000000005D
:10535000000000000000000000000000000000004D
:105360000000000000010204080912022404484859
:10537000109090908080A0A08080909090104848DD
:1053800004240212090804020100000000000000C9
:10539000000000000000000000000000000000000D
:1053A00000000000000000000000000000000000FD
:1053B00000000000000000000000000000000000ED
:1053C00000000000000000000000000000000000DD
:1053D00000000000000000000000000000000000CD
:1053E00000000000000000000000000000000000BD
:1053F00000000000000000000000000000000000AD
:10540000000000000000000000000000000000009C
:10541000000000000000000000000000000000008C
:10542000000000000000000000000000000000007C
:10543000000000000000000000000003030601045B
:105440000602050003051F1C1F1E1F1E1F1F1E1F17
:105450001E1F3031323334353637383941424344F8
:1054600045464030580030313233343536373839DC
:105470006162636465664030780000009C540008F7
:10548000000000206400000028010008005500080A
:1054900064000020740700004401000800A24A04D0
:1054A00000000000000000000102030406070809D4
:1054B00000000000000000000000E9A38EE5AA92B1
:1054C000E794B5E5AD90E6B8A9E5BAA6E6B9BFE5BB
:1054D000BAA6E99580E69C88E697A5000000000042
:1054E00000000000000000000000000000000102B9
:1054F0000304010203040607080902040608000069
:04000005080000ED02
:00000001FF
